{
  "contractName": "SmartMathExam",
  "abi": [
    {
      "inputs": [],
      "stateMutability": "nonpayable",
      "type": "constructor"
    },
    {
      "anonymous": false,
      "inputs": [
        {
          "indexed": true,
          "internalType": "address",
          "name": "owner",
          "type": "address"
        },
        {
          "indexed": true,
          "internalType": "address",
          "name": "approved",
          "type": "address"
        },
        {
          "indexed": true,
          "internalType": "uint256",
          "name": "tokenId",
          "type": "uint256"
        }
      ],
      "name": "Approval",
      "type": "event"
    },
    {
      "anonymous": false,
      "inputs": [
        {
          "indexed": true,
          "internalType": "address",
          "name": "owner",
          "type": "address"
        },
        {
          "indexed": true,
          "internalType": "address",
          "name": "operator",
          "type": "address"
        },
        {
          "indexed": false,
          "internalType": "bool",
          "name": "approved",
          "type": "bool"
        }
      ],
      "name": "ApprovalForAll",
      "type": "event"
    },
    {
      "anonymous": false,
      "inputs": [
        {
          "indexed": true,
          "internalType": "address",
          "name": "previousOwner",
          "type": "address"
        },
        {
          "indexed": true,
          "internalType": "address",
          "name": "newOwner",
          "type": "address"
        }
      ],
      "name": "OwnershipTransferred",
      "type": "event"
    },
    {
      "anonymous": false,
      "inputs": [
        {
          "indexed": true,
          "internalType": "address",
          "name": "from",
          "type": "address"
        },
        {
          "indexed": true,
          "internalType": "address",
          "name": "to",
          "type": "address"
        },
        {
          "indexed": true,
          "internalType": "uint256",
          "name": "tokenId",
          "type": "uint256"
        }
      ],
      "name": "Transfer",
      "type": "event"
    },
    {
      "inputs": [
        {
          "internalType": "address",
          "name": "profAdd",
          "type": "address"
        }
      ],
      "name": "addProfessor",
      "outputs": [
        {
          "internalType": "uint256",
          "name": "",
          "type": "uint256"
        }
      ],
      "stateMutability": "nonpayable",
      "type": "function"
    },
    {
      "inputs": [
        {
          "internalType": "string",
          "name": "_statement",
          "type": "string"
        }
      ],
      "name": "addQuestion",
      "outputs": [
        {
          "internalType": "uint256",
          "name": "",
          "type": "uint256"
        }
      ],
      "stateMutability": "nonpayable",
      "type": "function"
    },
    {
      "inputs": [
        {
          "internalType": "address",
          "name": "to",
          "type": "address"
        },
        {
          "internalType": "uint256",
          "name": "tokenId",
          "type": "uint256"
        }
      ],
      "name": "approve",
      "outputs": [],
      "stateMutability": "nonpayable",
      "type": "function"
    },
    {
      "inputs": [
        {
          "internalType": "address",
          "name": "owner",
          "type": "address"
        }
      ],
      "name": "balanceOf",
      "outputs": [
        {
          "internalType": "uint256",
          "name": "",
          "type": "uint256"
        }
      ],
      "stateMutability": "view",
      "type": "function",
      "constant": true
    },
    {
      "inputs": [
        {
          "internalType": "address",
          "name": "profAdd",
          "type": "address"
        }
      ],
      "name": "deleteProfessor",
      "outputs": [
        {
          "internalType": "uint256",
          "name": "",
          "type": "uint256"
        }
      ],
      "stateMutability": "nonpayable",
      "type": "function"
    },
    {
      "inputs": [
        {
          "internalType": "uint256",
          "name": "index",
          "type": "uint256"
        }
      ],
      "name": "deleteQuestion",
      "outputs": [
        {
          "internalType": "uint256",
          "name": "",
          "type": "uint256"
        }
      ],
      "stateMutability": "nonpayable",
      "type": "function"
    },
    {
      "inputs": [],
      "name": "examDone",
      "outputs": [
        {
          "internalType": "uint256",
          "name": "",
          "type": "uint256"
        }
      ],
      "stateMutability": "nonpayable",
      "type": "function"
    },
    {
      "inputs": [
        {
          "internalType": "uint256",
          "name": "tokenId",
          "type": "uint256"
        }
      ],
      "name": "getApproved",
      "outputs": [
        {
          "internalType": "address",
          "name": "",
          "type": "address"
        }
      ],
      "stateMutability": "view",
      "type": "function",
      "constant": true
    },
    {
      "inputs": [],
      "name": "getExamAvailability",
      "outputs": [
        {
          "internalType": "bool",
          "name": "",
          "type": "bool"
        }
      ],
      "stateMutability": "view",
      "type": "function",
      "constant": true
    },
    {
      "inputs": [],
      "name": "getLastUpdate",
      "outputs": [
        {
          "internalType": "uint256",
          "name": "",
          "type": "uint256"
        }
      ],
      "stateMutability": "view",
      "type": "function",
      "constant": true
    },
    {
      "inputs": [],
      "name": "getMaxScore",
      "outputs": [
        {
          "internalType": "uint256",
          "name": "",
          "type": "uint256"
        }
      ],
      "stateMutability": "pure",
      "type": "function",
      "constant": true
    },
    {
      "inputs": [
        {
          "internalType": "uint256",
          "name": "index",
          "type": "uint256"
        }
      ],
      "name": "getProfessorByIndex",
      "outputs": [
        {
          "internalType": "address",
          "name": "",
          "type": "address"
        }
      ],
      "stateMutability": "view",
      "type": "function",
      "constant": true
    },
    {
      "inputs": [],
      "name": "getProfessorsCount",
      "outputs": [
        {
          "internalType": "uint256",
          "name": "",
          "type": "uint256"
        }
      ],
      "stateMutability": "view",
      "type": "function",
      "constant": true
    },
    {
      "inputs": [
        {
          "internalType": "uint256",
          "name": "index",
          "type": "uint256"
        }
      ],
      "name": "getQuestionByIndex",
      "outputs": [
        {
          "internalType": "string",
          "name": "",
          "type": "string"
        }
      ],
      "stateMutability": "view",
      "type": "function",
      "constant": true
    },
    {
      "inputs": [],
      "name": "getQuestionsCount",
      "outputs": [
        {
          "internalType": "uint256",
          "name": "",
          "type": "uint256"
        }
      ],
      "stateMutability": "view",
      "type": "function",
      "constant": true
    },
    {
      "inputs": [
        {
          "internalType": "address",
          "name": "owner",
          "type": "address"
        },
        {
          "internalType": "address",
          "name": "operator",
          "type": "address"
        }
      ],
      "name": "isApprovedForAll",
      "outputs": [
        {
          "internalType": "bool",
          "name": "",
          "type": "bool"
        }
      ],
      "stateMutability": "view",
      "type": "function",
      "constant": true
    },
    {
      "inputs": [],
      "name": "name",
      "outputs": [
        {
          "internalType": "string",
          "name": "",
          "type": "string"
        }
      ],
      "stateMutability": "view",
      "type": "function",
      "constant": true
    },
    {
      "inputs": [],
      "name": "owner",
      "outputs": [
        {
          "internalType": "address",
          "name": "",
          "type": "address"
        }
      ],
      "stateMutability": "view",
      "type": "function",
      "constant": true
    },
    {
      "inputs": [
        {
          "internalType": "uint256",
          "name": "tokenId",
          "type": "uint256"
        }
      ],
      "name": "ownerOf",
      "outputs": [
        {
          "internalType": "address",
          "name": "",
          "type": "address"
        }
      ],
      "stateMutability": "view",
      "type": "function",
      "constant": true
    },
    {
      "inputs": [],
      "name": "renounceOwnership",
      "outputs": [],
      "stateMutability": "nonpayable",
      "type": "function"
    },
    {
      "inputs": [
        {
          "internalType": "address",
          "name": "from",
          "type": "address"
        },
        {
          "internalType": "address",
          "name": "to",
          "type": "address"
        },
        {
          "internalType": "uint256",
          "name": "tokenId",
          "type": "uint256"
        }
      ],
      "name": "safeTransferFrom",
      "outputs": [],
      "stateMutability": "nonpayable",
      "type": "function"
    },
    {
      "inputs": [
        {
          "internalType": "address",
          "name": "from",
          "type": "address"
        },
        {
          "internalType": "address",
          "name": "to",
          "type": "address"
        },
        {
          "internalType": "uint256",
          "name": "tokenId",
          "type": "uint256"
        },
        {
          "internalType": "bytes",
          "name": "data",
          "type": "bytes"
        }
      ],
      "name": "safeTransferFrom",
      "outputs": [],
      "stateMutability": "nonpayable",
      "type": "function"
    },
    {
      "inputs": [
        {
          "internalType": "address",
          "name": "operator",
          "type": "address"
        },
        {
          "internalType": "bool",
          "name": "approved",
          "type": "bool"
        }
      ],
      "name": "setApprovalForAll",
      "outputs": [],
      "stateMutability": "nonpayable",
      "type": "function"
    },
    {
      "inputs": [
        {
          "internalType": "bytes4",
          "name": "interfaceId",
          "type": "bytes4"
        }
      ],
      "name": "supportsInterface",
      "outputs": [
        {
          "internalType": "bool",
          "name": "",
          "type": "bool"
        }
      ],
      "stateMutability": "view",
      "type": "function",
      "constant": true
    },
    {
      "inputs": [],
      "name": "symbol",
      "outputs": [
        {
          "internalType": "string",
          "name": "",
          "type": "string"
        }
      ],
      "stateMutability": "view",
      "type": "function",
      "constant": true
    },
    {
      "inputs": [
        {
          "internalType": "uint256",
          "name": "tokenId",
          "type": "uint256"
        }
      ],
      "name": "tokenURI",
      "outputs": [
        {
          "internalType": "string",
          "name": "",
          "type": "string"
        }
      ],
      "stateMutability": "view",
      "type": "function",
      "constant": true
    },
    {
      "inputs": [
        {
          "internalType": "address",
          "name": "from",
          "type": "address"
        },
        {
          "internalType": "address",
          "name": "to",
          "type": "address"
        },
        {
          "internalType": "uint256",
          "name": "tokenId",
          "type": "uint256"
        }
      ],
      "name": "transferFrom",
      "outputs": [],
      "stateMutability": "nonpayable",
      "type": "function"
    },
    {
      "inputs": [
        {
          "internalType": "address",
          "name": "newOwner",
          "type": "address"
        }
      ],
      "name": "transferOwnership",
      "outputs": [],
      "stateMutability": "nonpayable",
      "type": "function"
    },
    {
      "inputs": [
        {
          "internalType": "address",
          "name": "studentAdd",
          "type": "address"
        }
      ],
      "name": "checkStudent",
      "outputs": [
        {
          "internalType": "bool",
          "name": "",
          "type": "bool"
        }
      ],
      "stateMutability": "view",
      "type": "function",
      "constant": true
    },
    {
      "inputs": [
        {
          "internalType": "address",
          "name": "studentAdd",
          "type": "address"
        }
      ],
      "name": "getStudent",
      "outputs": [
        {
          "components": [
            {
              "internalType": "address",
              "name": "studentAddress",
              "type": "address"
            },
            {
              "internalType": "string",
              "name": "ipfsURI",
              "type": "string"
            },
            {
              "internalType": "string[]",
              "name": "correctionNotes",
              "type": "string[]"
            },
            {
              "internalType": "int256",
              "name": "score",
              "type": "int256"
            },
            {
              "internalType": "bool",
              "name": "checkExam",
              "type": "bool"
            },
            {
              "internalType": "uint256",
              "name": "dateCommit",
              "type": "uint256"
            },
            {
              "internalType": "uint256",
              "name": "dateAssess",
              "type": "uint256"
            }
          ],
          "internalType": "struct SmartMathExam.StudentExam",
          "name": "",
          "type": "tuple"
        }
      ],
      "stateMutability": "view",
      "type": "function",
      "constant": true
    },
    {
      "inputs": [],
      "name": "getStudentsCount",
      "outputs": [
        {
          "internalType": "uint256",
          "name": "",
          "type": "uint256"
        }
      ],
      "stateMutability": "view",
      "type": "function",
      "constant": true
    },
    {
      "inputs": [
        {
          "internalType": "uint256",
          "name": "index",
          "type": "uint256"
        }
      ],
      "name": "getStudentByIndex",
      "outputs": [
        {
          "components": [
            {
              "internalType": "address",
              "name": "studentAddress",
              "type": "address"
            },
            {
              "internalType": "string",
              "name": "ipfsURI",
              "type": "string"
            },
            {
              "internalType": "string[]",
              "name": "correctionNotes",
              "type": "string[]"
            },
            {
              "internalType": "int256",
              "name": "score",
              "type": "int256"
            },
            {
              "internalType": "bool",
              "name": "checkExam",
              "type": "bool"
            },
            {
              "internalType": "uint256",
              "name": "dateCommit",
              "type": "uint256"
            },
            {
              "internalType": "uint256",
              "name": "dateAssess",
              "type": "uint256"
            }
          ],
          "internalType": "struct SmartMathExam.StudentExam",
          "name": "",
          "type": "tuple"
        }
      ],
      "stateMutability": "view",
      "type": "function",
      "constant": true
    },
    {
      "inputs": [
        {
          "internalType": "int256[]",
          "name": "_scores",
          "type": "int256[]"
        },
        {
          "internalType": "string[]",
          "name": "notes",
          "type": "string[]"
        },
        {
          "internalType": "address",
          "name": "studentAdd",
          "type": "address"
        }
      ],
      "name": "computeScore",
      "outputs": [
        {
          "internalType": "int256",
          "name": "",
          "type": "int256"
        }
      ],
      "stateMutability": "nonpayable",
      "type": "function"
    },
    {
      "inputs": [
        {
          "internalType": "address",
          "name": "_to",
          "type": "address"
        },
        {
          "internalType": "string",
          "name": "_uri",
          "type": "string"
        }
      ],
      "name": "mint",
      "outputs": [
        {
          "internalType": "uint256",
          "name": "",
          "type": "uint256"
        }
      ],
      "stateMutability": "nonpayable",
      "type": "function"
    },
    {
      "inputs": [
        {
          "internalType": "string",
          "name": "_uri",
          "type": "string"
        }
      ],
      "name": "doExam",
      "outputs": [
        {
          "internalType": "uint256",
          "name": "",
          "type": "uint256"
        }
      ],
      "stateMutability": "nonpayable",
      "type": "function"
    },
    {
      "inputs": [],
      "name": "checkScore",
      "outputs": [
        {
          "internalType": "int256",
          "name": "",
          "type": "int256"
        }
      ],
      "stateMutability": "view",
      "type": "function",
      "constant": true
    },
    {
      "inputs": [
        {
          "internalType": "address",
          "name": "_studentAdd",
          "type": "address"
        }
      ],
      "name": "getCorrectionNotes",
      "outputs": [
        {
          "internalType": "string[]",
          "name": "",
          "type": "string[]"
        }
      ],
      "stateMutability": "view",
      "type": "function",
      "constant": true
    }
  ],
  "bytecode": "0x60806040526000600960006101000a81548160ff0219169083151502179055506000600d553480156200003157600080fd5b506040518060400160405280600981526020017f736d6172744578616d00000000000000000000000000000000000000000000008152506040518060400160405280600381526020017f534d4500000000000000000000000000000000000000000000000000000000008152508160009081620000af919062000432565b508060019081620000c1919062000432565b505050620000e4620000d8620000ea60201b60201c565b620000f260201b60201c565b62000519565b600033905090565b6000600760009054906101000a900473ffffffffffffffffffffffffffffffffffffffff16905081600760006101000a81548173ffffffffffffffffffffffffffffffffffffffff021916908373ffffffffffffffffffffffffffffffffffffffff1602179055508173ffffffffffffffffffffffffffffffffffffffff168173ffffffffffffffffffffffffffffffffffffffff167f8be0079c531659141344cd1fd0a4f28419497f9722a3daafe3b4186f6b6457e060405160405180910390a35050565b600081519050919050565b7f4e487b7100000000000000000000000000000000000000000000000000000000600052604160045260246000fd5b7f4e487b7100000000000000000000000000000000000000000000000000000000600052602260045260246000fd5b600060028204905060018216806200023a57607f821691505b60208210810362000250576200024f620001f2565b5b50919050565b60008190508160005260206000209050919050565b60006020601f8301049050919050565b600082821b905092915050565b600060088302620002ba7fffffffffffffffffffffffffffffffffffffffffffffffffffffffffffffffff826200027b565b620002c686836200027b565b95508019841693508086168417925050509392505050565b6000819050919050565b6000819050919050565b6000620003136200030d6200030784620002de565b620002e8565b620002de565b9050919050565b6000819050919050565b6200032f83620002f2565b620003476200033e826200031a565b84845462000288565b825550505050565b600090565b6200035e6200034f565b6200036b81848462000324565b505050565b5b8181101562000393576200038760008262000354565b60018101905062000371565b5050565b601f821115620003e257620003ac8162000256565b620003b7846200026b565b81016020851015620003c7578190505b620003df620003d6856200026b565b83018262000370565b50505b505050565b600082821c905092915050565b60006200040760001984600802620003e7565b1980831691505092915050565b6000620004228383620003f4565b9150826002028217905092915050565b6200043d82620001b8565b67ffffffffffffffff811115620004595762000458620001c3565b5b62000465825462000221565b6200047282828562000397565b600060209050601f831160018114620004aa576000841562000495578287015190505b620004a1858262000414565b86555062000511565b601f198416620004ba8662000256565b60005b82811015620004e457848901518255600182019150602085019450602081019050620004bd565b8683101562000504578489015162000500601f891682620003f4565b8355505b6001600288020188555050505b505050505050565b61524780620005296000396000f3fe608060405234801561001057600080fd5b50600436106102265760003560e01c8063715018a611610130578063c2e112d2116100b8578063e463a0f21161007c578063e463a0f2146106db578063e985e9c51461070b578063f129dbd91461073b578063f2fde38b1461076b578063f481345a1461078757610226565b8063c2e112d21461060f578063c87b56dd1461062d578063d0def5211461065d578063dc248b991461068d578063dc78302b146106ab57610226565b80639828cd15116100ff5780639828cd151461056b5780639a3c4c7914610589578063a22cb465146105b9578063b106c05d146105d5578063b88d4fde146105f357610226565b8063715018a6146104f557806377e97f37146104ff5780638da5cb5b1461052f57806395d89b411461054d57610226565b80633169af30116101b35780634c89867f116101825780634c89867f146104175780636352211e14610435578063690ad9e2146104655780636b7b44d71461049557806370a08231146104c557610226565b80633169af301461038f5780633a166477146103ad5780634268edaa146103cb57806342842e0e146103fb57610226565b8063095ea7b3116101fa578063095ea7b3146102d95780630fa576f2146102f557806311ecb0e114610325578063179bfd361461035557806323b872dd1461037357610226565b8062afb2aa1461022b57806301ffc9a71461025b57806306fdde031461028b578063081812fc146102a9575b600080fd5b610245600480360381019061024091906136e6565b6107b7565b6040516102529190613754565b60405180910390f35b610275600480360381019061027091906137c7565b6107ff565b604051610282919061380f565b60405180910390f35b6102936108e1565b6040516102a091906138ba565b60405180910390f35b6102c360048036038101906102be91906136e6565b610973565b6040516102d09190613754565b60405180910390f35b6102f360048036038101906102ee9190613908565b6109b9565b005b61030f600480360381019061030a9190613948565b610ad0565b60405161031c9190613984565b60405180910390f35b61033f600480360381019061033a9190613cb3565b610c8d565b60405161034c9190613d4d565b60405180910390f35b61035d610e96565b60405161036a9190613d4d565b60405180910390f35b61038d60048036038101906103889190613d68565b610f98565b005b610397610ff8565b6040516103a4919061380f565b60405180910390f35b6103b561100f565b6040516103c29190613984565b60405180910390f35b6103e560048036038101906103e09190613948565b61101c565b6040516103f29190613984565b60405180910390f35b61041560048036038101906104109190613d68565b6110aa565b005b61041f6110ca565b60405161042c9190613984565b60405180910390f35b61044f600480360381019061044a91906136e6565b6110d4565b60405161045c9190613754565b60405180910390f35b61047f600480360381019061047a9190613948565b61115a565b60405161048c9190613ec7565b60405180910390f35b6104af60048036038101906104aa9190613948565b6113b6565b6040516104bc919061404e565b60405180910390f35b6104df60048036038101906104da9190613948565b611692565b6040516104ec9190613984565b60405180910390f35b6104fd611749565b005b610519600480360381019061051491906136e6565b61175d565b60405161052691906138ba565b60405180910390f35b6105376118ea565b6040516105449190613754565b60405180910390f35b610555611914565b60405161056291906138ba565b60405180910390f35b6105736119a6565b6040516105809190613984565b60405180910390f35b6105a3600480360381019061059e91906136e6565b6119b3565b6040516105b09190613984565b60405180910390f35b6105d360048036038101906105ce919061409c565b611aaa565b005b6105dd611ac0565b6040516105ea9190613984565b60405180910390f35b61060d6004803603810190610608919061417d565b611b33565b005b610617611b95565b6040516106249190613984565b60405180910390f35b610647600480360381019061064291906136e6565b611bdc565b60405161065491906138ba565b60405180910390f35b6106776004803603810190610672919061425b565b611cee565b6040516106849190613984565b60405180910390f35b610695611ea0565b6040516106a29190613984565b60405180910390f35b6106c560048036038101906106c091906136e6565b611ea9565b6040516106d2919061404e565b60405180910390f35b6106f560048036038101906106f091906142bb565b6120df565b6040516107029190613984565b60405180910390f35b61072560048036038101906107209190614308565b61231c565b604051610732919061380f565b60405180910390f35b610755600480360381019061075091906142bb565b6123b0565b6040516107629190613984565b60405180910390f35b61078560048036038101906107809190613948565b612419565b005b6107a1600480360381019061079c9190613948565b61249c565b6040516107ae919061380f565b60405180910390f35b6000600882815481106107cd576107cc614348565b5b9060005260206000200160009054906101000a900473ffffffffffffffffffffffffffffffffffffffff169050919050565b60007f80ac58cd000000000000000000000000000000000000000000000000000000007bffffffffffffffffffffffffffffffffffffffffffffffffffffffff1916827bffffffffffffffffffffffffffffffffffffffffffffffffffffffff191614806108ca57507f5b5e139f000000000000000000000000000000000000000000000000000000007bffffffffffffffffffffffffffffffffffffffffffffffffffffffff1916827bffffffffffffffffffffffffffffffffffffffffffffffffffffffff1916145b806108da57506108d982612551565b5b9050919050565b6060600080546108f0906143a6565b80601f016020809104026020016040519081016040528092919081815260200182805461091c906143a6565b80156109695780601f1061093e57610100808354040283529160200191610969565b820191906000526020600020905b81548152906001019060200180831161094c57829003601f168201915b5050505050905090565b600061097e826125bb565b6004600083815260200190815260200160002060009054906101000a900473ffffffffffffffffffffffffffffffffffffffff169050919050565b60006109c4826110d4565b90508073ffffffffffffffffffffffffffffffffffffffff168373ffffffffffffffffffffffffffffffffffffffff1603610a34576040517f08c379a0000000000000000000000000000000000000000000000000000000008152600401610a2b90614449565b60405180910390fd5b8073ffffffffffffffffffffffffffffffffffffffff16610a53612606565b73ffffffffffffffffffffffffffffffffffffffff161480610a825750610a8181610a7c612606565b61231c565b5b610ac1576040517f08c379a0000000000000000000000000000000000000000000000000000000008152600401610ab8906144db565b60405180910390fd5b610acb838361260e565b505050565b6000610ada6126c7565b610ae382612745565b15610c83576000805b600880549050811015610b855760088181548110610b0d57610b0c614348565b5b9060005260206000200160009054906101000a900473ffffffffffffffffffffffffffffffffffffffff1673ffffffffffffffffffffffffffffffffffffffff168473ffffffffffffffffffffffffffffffffffffffff1603610b7257809150610b85565b8080610b7d9061452a565b915050610aec565b5060086001600880549050610b9a9190614572565b81548110610bab57610baa614348565b5b9060005260206000200160009054906101000a900473ffffffffffffffffffffffffffffffffffffffff1660088281548110610bea57610be9614348565b5b9060005260206000200160006101000a81548173ffffffffffffffffffffffffffffffffffffffff021916908373ffffffffffffffffffffffffffffffffffffffff1602179055506008805480610c4457610c436145a6565b5b6001900381819060005260206000200160006101000a81549073ffffffffffffffffffffffffffffffffffffffff021916905590556000915050610c88565b600190505b919050565b60008060009050610c9d33612745565b610cca577fffffffffffffffffffffffffffffffffffffffffffffffffffffffffffffffff915050610e8f565b610cd38361249c565b1580610ce95750610ce3836113b6565b60800151155b15610d17577ffffffffffffffffffffffffffffffffffffffffffffffffffffffffffffffffe915050610e8f565b60005b8551811015610d5e57858181518110610d3657610d35614348565b5b602002602001015182610d4991906145d5565b91508080610d569061452a565b915050610d1a565b5060005b600c80549050811015610e8957600c8181548110610d8357610d82614348565b5b906000526020600020906007020160000160009054906101000a900473ffffffffffffffffffffffffffffffffffffffff1673ffffffffffffffffffffffffffffffffffffffff168473ffffffffffffffffffffffffffffffffffffffff1603610e765781600c8281548110610dfc57610dfb614348565b5b90600052602060002090600702016003018190555084600c8281548110610e2657610e25614348565b5b90600052602060002090600702016002019080519060200190610e4a92919061356d565b5042600c8281548110610e6057610e5f614348565b5b9060005260206000209060070201600601819055505b8080610e819061452a565b915050610d62565b50809150505b9392505050565b6000610ea13361249c565b15610f715760005b600c80549050811015610f6f57600c8181548110610eca57610ec9614348565b5b906000526020600020906007020160000160009054906101000a900473ffffffffffffffffffffffffffffffffffffffff1673ffffffffffffffffffffffffffffffffffffffff163373ffffffffffffffffffffffffffffffffffffffff1603610f5c57600c8181548110610f4257610f41614348565b5b906000526020600020906007020160030154915050610f95565b8080610f679061452a565b915050610ea9565b505b7fffffffffffffffffffffffffffffffffffffffffffffffffffffffffffffffff90505b90565b610fa9610fa3612606565b826127f3565b610fe8576040517f08c379a0000000000000000000000000000000000000000000000000000000008152600401610fdf9061468b565b60405180910390fd5b610ff3838383612888565b505050565b6000600960009054906101000a900460ff16905090565b6000600880549050905090565b60006110266126c7565b61102f82612745565b1561103d57600190506110a5565b6008829080600181540180825580915050600190039060005260206000200160009091909190916101000a81548173ffffffffffffffffffffffffffffffffffffffff021916908373ffffffffffffffffffffffffffffffffffffffff160217905550600090505b919050565b6110c583838360405180602001604052806000815250611b33565b505050565b6000600a54905090565b6000806110e083612b81565b9050600073ffffffffffffffffffffffffffffffffffffffff168173ffffffffffffffffffffffffffffffffffffffff1603611151576040517f08c379a0000000000000000000000000000000000000000000000000000000008152600401611148906146f7565b60405180910390fd5b80915050919050565b60606111658261249c565b156113045760005b600c8054905081101561130257600c818154811061118e5761118d614348565b5b906000526020600020906007020160000160009054906101000a900473ffffffffffffffffffffffffffffffffffffffff1673ffffffffffffffffffffffffffffffffffffffff168373ffffffffffffffffffffffffffffffffffffffff16036112ef57600c818154811061120657611205614348565b5b9060005260206000209060070201600201805480602002602001604051908101604052809291908181526020016000905b828210156112e3578382906000526020600020018054611256906143a6565b80601f0160208091040260200160405190810160405280929190818152602001828054611282906143a6565b80156112cf5780601f106112a4576101008083540402835291602001916112cf565b820191906000526020600020905b8154815290600101906020018083116112b257829003601f168201915b505050505081526020019060010190611237565b505050509150506113b1565b80806112fa9061452a565b91505061116d565b505b6000600167ffffffffffffffff811115611321576113206139a4565b5b60405190808252806020026020018201604052801561135457816020015b606081526020019060019003908161133f5790505b5090506040518060400160405280600581526020017f6572726f72000000000000000000000000000000000000000000000000000000815250816000815181106113a1576113a0614348565b5b6020026020010181905250809150505b919050565b6113be6135c6565b6000805b600c8054905081101561146257600c81815481106113e3576113e2614348565b5b906000526020600020906007020160000160009054906101000a900473ffffffffffffffffffffffffffffffffffffffff1673ffffffffffffffffffffffffffffffffffffffff168473ffffffffffffffffffffffffffffffffffffffff160361144f57809150611462565b808061145a9061452a565b9150506113c2565b50600c818154811061147757611476614348565b5b90600052602060002090600702016040518060e00160405290816000820160009054906101000a900473ffffffffffffffffffffffffffffffffffffffff1673ffffffffffffffffffffffffffffffffffffffff1673ffffffffffffffffffffffffffffffffffffffff1681526020016001820180546114f6906143a6565b80601f0160208091040260200160405190810160405280929190818152602001828054611522906143a6565b801561156f5780601f106115445761010080835404028352916020019161156f565b820191906000526020600020905b81548152906001019060200180831161155257829003601f168201915b5050505050815260200160028201805480602002602001604051908101604052809291908181526020016000905b828210156116495783829060005260206000200180546115bc906143a6565b80601f01602080910402602001604051908101604052809291908181526020018280546115e8906143a6565b80156116355780601f1061160a57610100808354040283529160200191611635565b820191906000526020600020905b81548152906001019060200180831161161857829003601f168201915b50505050508152602001906001019061159d565b505050508152602001600382015481526020016004820160009054906101000a900460ff1615151515815260200160058201548152602001600682015481525050915050919050565b60008073ffffffffffffffffffffffffffffffffffffffff168273ffffffffffffffffffffffffffffffffffffffff1603611702576040517f08c379a00000000000000000000000000000000000000000000000000000000081526004016116f990614789565b60405180910390fd5b600360008373ffffffffffffffffffffffffffffffffffffffff1673ffffffffffffffffffffffffffffffffffffffff168152602001908152602001600020549050919050565b6117516126c7565b61175b6000612bbe565b565b606061176833612745565b1561181b57600b828154811061178157611780614348565b5b906000526020600020018054611796906143a6565b80601f01602080910402602001604051908101604052809291908181526020018280546117c2906143a6565b801561180f5780601f106117e45761010080835404028352916020019161180f565b820191906000526020600020905b8154815290600101906020018083116117f257829003601f168201915b505050505090506118e5565b600960009054906101000a900460ff16156118de57600b828154811061184457611843614348565b5b906000526020600020018054611859906143a6565b80601f0160208091040260200160405190810160405280929190818152602001828054611885906143a6565b80156118d25780601f106118a7576101008083540402835291602001916118d2565b820191906000526020600020905b8154815290600101906020018083116118b557829003601f168201915b505050505090506118e5565b6060809150505b919050565b6000600760009054906101000a900473ffffffffffffffffffffffffffffffffffffffff16905090565b606060018054611923906143a6565b80601f016020809104026020016040519081016040528092919081815260200182805461194f906143a6565b801561199c5780601f106119715761010080835404028352916020019161199c565b820191906000526020600020905b81548152906001019060200180831161197f57829003601f168201915b5050505050905090565b6000600c80549050905090565b6000600960009054906101000a900460ff16611aa0576119d233612745565b80156119e25750600b8054905082105b15611a8157600b6001600b805490506119fb9190614572565b81548110611a0c57611a0b614348565b5b90600052602060002001600b8381548110611a2a57611a29614348565b5b906000526020600020019081611a409190614980565b50600b805480611a5357611a526145a6565b5b600190038181906000526020600020016000611a6f919061361b565b905542600a8190555060009050611aa5565b611a8a33612745565b611a975760019050611aa5565b60029050611aa5565b600390505b919050565b611abc611ab5612606565b8383612c84565b5050565b6000611acb33612745565b8015611ae45750600960009054906101000a900460ff16155b15611b0d576001600960006101000a81548160ff02191690831515021790555060009050611b30565b600960009054906101000a900460ff1615611b2b5760019050611b30565b600290505b90565b611b44611b3e612606565b836127f3565b611b83576040517f08c379a0000000000000000000000000000000000000000000000000000000008152600401611b7a9061468b565b60405180910390fd5b611b8f84848484612df0565b50505050565b6000611ba033612745565b15611bb257600b805490509050611bd9565b600960009054906101000a900460ff1615611bd457600b805490509050611bd9565b600090505b90565b6060611be7826125bb565b6000600660008481526020019081526020016000208054611c07906143a6565b80601f0160208091040260200160405190810160405280929190818152602001828054611c33906143a6565b8015611c805780601f10611c5557610100808354040283529160200191611c80565b820191906000526020600020905b815481529060010190602001808311611c6357829003601f168201915b505050505090506000611c91612e4c565b90506000815103611ca6578192505050611ce9565b600082511115611cdb578082604051602001611cc3929190614aa4565b60405160208183030381529060405292505050611ce9565b611ce484612e63565b925050505b919050565b6000611cf86126c7565b611d018461249c565b8015611d175750611d11846113b6565b60800151155b15611e7d57611d2884600d54612ecb565b611d78600d5484848080601f016020809104026020016040519081016040528093929190818152602001838380828437600081840152601f19601f820116905080830192505050505050506130e8565b600d6000815480929190611d8b9061452a565b91905055506000805b600c80549050811015611e3457600c8181548110611db557611db4614348565b5b906000526020600020906007020160000160009054906101000a900473ffffffffffffffffffffffffffffffffffffffff1673ffffffffffffffffffffffffffffffffffffffff168673ffffffffffffffffffffffffffffffffffffffff1603611e2157809150611e34565b8080611e2c9061452a565b915050611d94565b506001600c8281548110611e4b57611e4a614348565b5b906000526020600020906007020160040160006101000a81548160ff0219169083151502179055506000915050611e99565b611e868461249c565b15611e945760019050611e99565b600290505b9392505050565b60006064905090565b611eb16135c6565b600c8281548110611ec557611ec4614348565b5b90600052602060002090600702016040518060e00160405290816000820160009054906101000a900473ffffffffffffffffffffffffffffffffffffffff1673ffffffffffffffffffffffffffffffffffffffff1673ffffffffffffffffffffffffffffffffffffffff168152602001600182018054611f44906143a6565b80601f0160208091040260200160405190810160405280929190818152602001828054611f70906143a6565b8015611fbd5780601f10611f9257610100808354040283529160200191611fbd565b820191906000526020600020905b815481529060010190602001808311611fa057829003601f168201915b5050505050815260200160028201805480602002602001604051908101604052809291908181526020016000905b8282101561209757838290600052602060002001805461200a906143a6565b80601f0160208091040260200160405190810160405280929190818152602001828054612036906143a6565b80156120835780601f1061205857610100808354040283529160200191612083565b820191906000526020600020905b81548152906001019060200180831161206657829003601f168201915b505050505081526020019060010190611feb565b505050508152602001600382015481526020016004820160009054906101000a900460ff16151515158152602001600582015481526020016006820154815250509050919050565b60006120ea3361249c565b1580156121035750600960009054906101000a900460ff165b156122f457600c6040518060e001604052803373ffffffffffffffffffffffffffffffffffffffff16815260200185858080601f016020809104026020016040519081016040528093929190818152602001838380828437600081840152601f19601f820116905080830192505050505050508152602001600067ffffffffffffffff811115612196576121956139a4565b5b6040519080825280602002602001820160405280156121c957816020015b60608152602001906001900390816121b45790505b5081526020017ffffffffffffffffffffffffffffffffffffffffffffffffffffffffffffffff6815260200160001515815260200142815260200142815250908060018154018082558091505060019003906000526020600020906007020160009091909190915060008201518160000160006101000a81548173ffffffffffffffffffffffffffffffffffffffff021916908373ffffffffffffffffffffffffffffffffffffffff160217905550602082015181600101908161228d9190614ac8565b5060408201518160020190805190602001906122aa92919061356d565b506060820151816003015560808201518160040160006101000a81548160ff02191690831515021790555060a0820151816005015560c08201518160060155505060009050612316565b600960009054906101000a900460ff166123115760019050612316565b600290505b92915050565b6000600560008473ffffffffffffffffffffffffffffffffffffffff1673ffffffffffffffffffffffffffffffffffffffff16815260200190815260200160002060008373ffffffffffffffffffffffffffffffffffffffff1673ffffffffffffffffffffffffffffffffffffffff16815260200190815260200160002060009054906101000a900460ff16905092915050565b60006123bb33612745565b1561240e57600b8383909180600181540180825580915050600190039060005260206000200160009091929091929091929091925091826123fd929190614ba5565b5042600a8190555060009050612413565b600190505b92915050565b6124216126c7565b600073ffffffffffffffffffffffffffffffffffffffff168173ffffffffffffffffffffffffffffffffffffffff1603612490576040517f08c379a000000000000000000000000000000000000000000000000000000000815260040161248790614ce7565b60405180910390fd5b61249981612bbe565b50565b6000806000905060005b600c8054905081101561254757600c81815481106124c7576124c6614348565b5b906000526020600020906007020160000160009054906101000a900473ffffffffffffffffffffffffffffffffffffffff1673ffffffffffffffffffffffffffffffffffffffff168473ffffffffffffffffffffffffffffffffffffffff16036125345760019150612547565b808061253f9061452a565b9150506124a6565b5080915050919050565b60007f01ffc9a7000000000000000000000000000000000000000000000000000000007bffffffffffffffffffffffffffffffffffffffffffffffffffffffff1916827bffffffffffffffffffffffffffffffffffffffffffffffffffffffff1916149050919050565b6125c481613155565b612603576040517f08c379a00000000000000000000000000000000000000000000000000000000081526004016125fa906146f7565b60405180910390fd5b50565b600033905090565b816004600083815260200190815260200160002060006101000a81548173ffffffffffffffffffffffffffffffffffffffff021916908373ffffffffffffffffffffffffffffffffffffffff160217905550808273ffffffffffffffffffffffffffffffffffffffff16612681836110d4565b73ffffffffffffffffffffffffffffffffffffffff167f8c5be1e5ebec7d5bd14f71427d1e84f3dd0314c0f7b2291e5b200ac8c7c3b92560405160405180910390a45050565b6126cf612606565b73ffffffffffffffffffffffffffffffffffffffff166126ed6118ea565b73ffffffffffffffffffffffffffffffffffffffff1614612743576040517f08c379a000000000000000000000000000000000000000000000000000000000815260040161273a90614d53565b60405180910390fd5b565b6000806000905060005b6008805490508110156127e957600881815481106127705761276f614348565b5b9060005260206000200160009054906101000a900473ffffffffffffffffffffffffffffffffffffffff1673ffffffffffffffffffffffffffffffffffffffff168473ffffffffffffffffffffffffffffffffffffffff16036127d657600191506127e9565b80806127e19061452a565b91505061274f565b5080915050919050565b6000806127ff836110d4565b90508073ffffffffffffffffffffffffffffffffffffffff168473ffffffffffffffffffffffffffffffffffffffff1614806128415750612840818561231c565b5b8061287f57508373ffffffffffffffffffffffffffffffffffffffff1661286784610973565b73ffffffffffffffffffffffffffffffffffffffff16145b91505092915050565b8273ffffffffffffffffffffffffffffffffffffffff166128a8826110d4565b73ffffffffffffffffffffffffffffffffffffffff16146128fe576040517f08c379a00000000000000000000000000000000000000000000000000000000081526004016128f590614de5565b60405180910390fd5b600073ffffffffffffffffffffffffffffffffffffffff168273ffffffffffffffffffffffffffffffffffffffff160361296d576040517f08c379a000000000000000000000000000000000000000000000000000000000815260040161296490614e77565b60405180910390fd5b61297a8383836001613196565b8273ffffffffffffffffffffffffffffffffffffffff1661299a826110d4565b73ffffffffffffffffffffffffffffffffffffffff16146129f0576040517f08c379a00000000000000000000000000000000000000000000000000000000081526004016129e790614de5565b60405180910390fd5b6004600082815260200190815260200160002060006101000a81549073ffffffffffffffffffffffffffffffffffffffff02191690556001600360008573ffffffffffffffffffffffffffffffffffffffff1673ffffffffffffffffffffffffffffffffffffffff168152602001908152602001600020600082825403925050819055506001600360008473ffffffffffffffffffffffffffffffffffffffff1673ffffffffffffffffffffffffffffffffffffffff16815260200190815260200160002060008282540192505081905550816002600083815260200190815260200160002060006101000a81548173ffffffffffffffffffffffffffffffffffffffff021916908373ffffffffffffffffffffffffffffffffffffffff160217905550808273ffffffffffffffffffffffffffffffffffffffff168473ffffffffffffffffffffffffffffffffffffffff167fddf252ad1be2c89b69c2b068fc378daa952ba7f163c4a11628f55a4df523b3ef60405160405180910390a4612b7c838383600161319c565b505050565b60006002600083815260200190815260200160002060009054906101000a900473ffffffffffffffffffffffffffffffffffffffff169050919050565b6000600760009054906101000a900473ffffffffffffffffffffffffffffffffffffffff16905081600760006101000a81548173ffffffffffffffffffffffffffffffffffffffff021916908373ffffffffffffffffffffffffffffffffffffffff1602179055508173ffffffffffffffffffffffffffffffffffffffff168173ffffffffffffffffffffffffffffffffffffffff167f8be0079c531659141344cd1fd0a4f28419497f9722a3daafe3b4186f6b6457e060405160405180910390a35050565b8173ffffffffffffffffffffffffffffffffffffffff168373ffffffffffffffffffffffffffffffffffffffff1603612cf2576040517f08c379a0000000000000000000000000000000000000000000000000000000008152600401612ce990614ee3565b60405180910390fd5b80600560008573ffffffffffffffffffffffffffffffffffffffff1673ffffffffffffffffffffffffffffffffffffffff16815260200190815260200160002060008473ffffffffffffffffffffffffffffffffffffffff1673ffffffffffffffffffffffffffffffffffffffff16815260200190815260200160002060006101000a81548160ff0219169083151502179055508173ffffffffffffffffffffffffffffffffffffffff168373ffffffffffffffffffffffffffffffffffffffff167f17307eab39ab6107e8899845ad3d59bd9653f200f220920489ca2b5937696c3183604051612de3919061380f565b60405180910390a3505050565b612dfb848484612888565b612e07848484846131a2565b612e46576040517f08c379a0000000000000000000000000000000000000000000000000000000008152600401612e3d90614f75565b60405180910390fd5b50505050565b606060405180602001604052806000815250905090565b6060612e6e826125bb565b6000612e78612e4c565b90506000815111612e985760405180602001604052806000815250612ec3565b80612ea284613329565b604051602001612eb3929190614aa4565b6040516020818303038152906040525b915050919050565b600073ffffffffffffffffffffffffffffffffffffffff168273ffffffffffffffffffffffffffffffffffffffff1603612f3a576040517f08c379a0000000000000000000000000000000000000000000000000000000008152600401612f3190614fe1565b60405180910390fd5b612f4381613155565b15612f83576040517f08c379a0000000000000000000000000000000000000000000000000000000008152600401612f7a9061504d565b60405180910390fd5b612f91600083836001613196565b612f9a81613155565b15612fda576040517f08c379a0000000000000000000000000000000000000000000000000000000008152600401612fd19061504d565b60405180910390fd5b6001600360008473ffffffffffffffffffffffffffffffffffffffff1673ffffffffffffffffffffffffffffffffffffffff16815260200190815260200160002060008282540192505081905550816002600083815260200190815260200160002060006101000a81548173ffffffffffffffffffffffffffffffffffffffff021916908373ffffffffffffffffffffffffffffffffffffffff160217905550808273ffffffffffffffffffffffffffffffffffffffff16600073ffffffffffffffffffffffffffffffffffffffff167fddf252ad1be2c89b69c2b068fc378daa952ba7f163c4a11628f55a4df523b3ef60405160405180910390a46130e460008383600161319c565b5050565b6130f182613155565b613130576040517f08c379a0000000000000000000000000000000000000000000000000000000008152600401613127906150df565b60405180910390fd5b806006600084815260200190815260200160002090816131509190614ac8565b505050565b60008073ffffffffffffffffffffffffffffffffffffffff1661317783612b81565b73ffffffffffffffffffffffffffffffffffffffff1614159050919050565b50505050565b50505050565b60006131c38473ffffffffffffffffffffffffffffffffffffffff166133f7565b1561331c578373ffffffffffffffffffffffffffffffffffffffff1663150b7a026131ec612606565b8786866040518563ffffffff1660e01b815260040161320e9493929190615154565b6020604051808303816000875af192505050801561324a57506040513d601f19601f8201168201806040525081019061324791906151b5565b60015b6132cc573d806000811461327a576040519150601f19603f3d011682016040523d82523d6000602084013e61327f565b606091505b5060008151036132c4576040517f08c379a00000000000000000000000000000000000000000000000000000000081526004016132bb90614f75565b60405180910390fd5b805181602001fd5b63150b7a0260e01b7bffffffffffffffffffffffffffffffffffffffffffffffffffffffff1916817bffffffffffffffffffffffffffffffffffffffffffffffffffffffff191614915050613321565b600190505b949350505050565b6060600060016133388461341a565b01905060008167ffffffffffffffff811115613357576133566139a4565b5b6040519080825280601f01601f1916602001820160405280156133895781602001600182028036833780820191505090505b509050600082602001820190505b6001156133ec578080600190039150507f3031323334353637383961626364656600000000000000000000000000000000600a86061a8153600a85816133e0576133df6151e2565b5b04945060008503613397575b819350505050919050565b6000808273ffffffffffffffffffffffffffffffffffffffff163b119050919050565b600080600090507a184f03e93ff9f4daa797ed6e38ed64bf6a1f0100000000000000008310613478577a184f03e93ff9f4daa797ed6e38ed64bf6a1f010000000000000000838161346e5761346d6151e2565b5b0492506040810190505b6d04ee2d6d415b85acef810000000083106134b5576d04ee2d6d415b85acef810000000083816134ab576134aa6151e2565b5b0492506020810190505b662386f26fc1000083106134e457662386f26fc1000083816134da576134d96151e2565b5b0492506010810190505b6305f5e100831061350d576305f5e1008381613503576135026151e2565b5b0492506008810190505b6127108310613532576127108381613528576135276151e2565b5b0492506004810190505b60648310613555576064838161354b5761354a6151e2565b5b0492506002810190505b600a8310613564576001810190505b80915050919050565b8280548282559060005260206000209081019282156135b5579160200282015b828111156135b45782518290816135a49190614ac8565b509160200191906001019061358d565b5b5090506135c2919061365b565b5090565b6040518060e00160405280600073ffffffffffffffffffffffffffffffffffffffff16815260200160608152602001606081526020016000815260200160001515815260200160008152602001600081525090565b508054613627906143a6565b6000825580601f106136395750613658565b601f016020900490600052602060002090810190613657919061367f565b5b50565b5b8082111561367b5760008181613672919061361b565b5060010161365c565b5090565b5b80821115613698576000816000905550600101613680565b5090565b6000604051905090565b600080fd5b600080fd5b6000819050919050565b6136c3816136b0565b81146136ce57600080fd5b50565b6000813590506136e0816136ba565b92915050565b6000602082840312156136fc576136fb6136a6565b5b600061370a848285016136d1565b91505092915050565b600073ffffffffffffffffffffffffffffffffffffffff82169050919050565b600061373e82613713565b9050919050565b61374e81613733565b82525050565b60006020820190506137696000830184613745565b92915050565b60007fffffffff0000000000000000000000000000000000000000000000000000000082169050919050565b6137a48161376f565b81146137af57600080fd5b50565b6000813590506137c18161379b565b92915050565b6000602082840312156137dd576137dc6136a6565b5b60006137eb848285016137b2565b91505092915050565b60008115159050919050565b613809816137f4565b82525050565b60006020820190506138246000830184613800565b92915050565b600081519050919050565b600082825260208201905092915050565b60005b83811015613864578082015181840152602081019050613849565b60008484015250505050565b6000601f19601f8301169050919050565b600061388c8261382a565b6138968185613835565b93506138a6818560208601613846565b6138af81613870565b840191505092915050565b600060208201905081810360008301526138d48184613881565b905092915050565b6138e581613733565b81146138f057600080fd5b50565b600081359050613902816138dc565b92915050565b6000806040838503121561391f5761391e6136a6565b5b600061392d858286016138f3565b925050602061393e858286016136d1565b9150509250929050565b60006020828403121561395e5761395d6136a6565b5b600061396c848285016138f3565b91505092915050565b61397e816136b0565b82525050565b60006020820190506139996000830184613975565b92915050565b600080fd5b7f4e487b7100000000000000000000000000000000000000000000000000000000600052604160045260246000fd5b6139dc82613870565b810181811067ffffffffffffffff821117156139fb576139fa6139a4565b5b80604052505050565b6000613a0e61369c565b9050613a1a82826139d3565b919050565b600067ffffffffffffffff821115613a3a57613a396139a4565b5b602082029050602081019050919050565b600080fd5b6000819050919050565b613a6381613a50565b8114613a6e57600080fd5b50565b600081359050613a8081613a5a565b92915050565b6000613a99613a9484613a1f565b613a04565b90508083825260208201905060208402830185811115613abc57613abb613a4b565b5b835b81811015613ae55780613ad18882613a71565b845260208401935050602081019050613abe565b5050509392505050565b600082601f830112613b0457613b0361399f565b5b8135613b14848260208601613a86565b91505092915050565b600067ffffffffffffffff821115613b3857613b376139a4565b5b602082029050602081019050919050565b600080fd5b600067ffffffffffffffff821115613b6957613b686139a4565b5b613b7282613870565b9050602081019050919050565b82818337600083830152505050565b6000613ba1613b9c84613b4e565b613a04565b905082815260208101848484011115613bbd57613bbc613b49565b5b613bc8848285613b7f565b509392505050565b600082601f830112613be557613be461399f565b5b8135613bf5848260208601613b8e565b91505092915050565b6000613c11613c0c84613b1d565b613a04565b90508083825260208201905060208402830185811115613c3457613c33613a4b565b5b835b81811015613c7b57803567ffffffffffffffff811115613c5957613c5861399f565b5b808601613c668982613bd0565b85526020850194505050602081019050613c36565b5050509392505050565b600082601f830112613c9a57613c9961399f565b5b8135613caa848260208601613bfe565b91505092915050565b600080600060608486031215613ccc57613ccb6136a6565b5b600084013567ffffffffffffffff811115613cea57613ce96136ab565b5b613cf686828701613aef565b935050602084013567ffffffffffffffff811115613d1757613d166136ab565b5b613d2386828701613c85565b9250506040613d34868287016138f3565b9150509250925092565b613d4781613a50565b82525050565b6000602082019050613d626000830184613d3e565b92915050565b600080600060608486031215613d8157613d806136a6565b5b6000613d8f868287016138f3565b9350506020613da0868287016138f3565b9250506040613db1868287016136d1565b9150509250925092565b600081519050919050565b600082825260208201905092915050565b6000819050602082019050919050565b600082825260208201905092915050565b6000613e038261382a565b613e0d8185613de7565b9350613e1d818560208601613846565b613e2681613870565b840191505092915050565b6000613e3d8383613df8565b905092915050565b6000602082019050919050565b6000613e5d82613dbb565b613e678185613dc6565b935083602082028501613e7985613dd7565b8060005b85811015613eb55784840389528151613e968582613e31565b9450613ea183613e45565b925060208a01995050600181019050613e7d565b50829750879550505050505092915050565b60006020820190508181036000830152613ee18184613e52565b905092915050565b613ef281613733565b82525050565b600082825260208201905092915050565b6000613f1482613dbb565b613f1e8185613ef8565b935083602082028501613f3085613dd7565b8060005b85811015613f6c5784840389528151613f4d8582613e31565b9450613f5883613e45565b925060208a01995050600181019050613f34565b50829750879550505050505092915050565b613f8781613a50565b82525050565b613f96816137f4565b82525050565b613fa5816136b0565b82525050565b600060e083016000830151613fc36000860182613ee9565b5060208301518482036020860152613fdb8282613df8565b91505060408301518482036040860152613ff58282613f09565b915050606083015161400a6060860182613f7e565b50608083015161401d6080860182613f8d565b5060a083015161403060a0860182613f9c565b5060c083015161404360c0860182613f9c565b508091505092915050565b600060208201905081810360008301526140688184613fab565b905092915050565b614079816137f4565b811461408457600080fd5b50565b60008135905061409681614070565b92915050565b600080604083850312156140b3576140b26136a6565b5b60006140c1858286016138f3565b92505060206140d285828601614087565b9150509250929050565b600067ffffffffffffffff8211156140f7576140f66139a4565b5b61410082613870565b9050602081019050919050565b600061412061411b846140dc565b613a04565b90508281526020810184848401111561413c5761413b613b49565b5b614147848285613b7f565b509392505050565b600082601f8301126141645761416361399f565b5b813561417484826020860161410d565b91505092915050565b60008060008060808587031215614197576141966136a6565b5b60006141a5878288016138f3565b94505060206141b6878288016138f3565b93505060406141c7878288016136d1565b925050606085013567ffffffffffffffff8111156141e8576141e76136ab565b5b6141f48782880161414f565b91505092959194509250565b600080fd5b60008083601f84011261421b5761421a61399f565b5b8235905067ffffffffffffffff81111561423857614237614200565b5b60208301915083600182028301111561425457614253613a4b565b5b9250929050565b600080600060408486031215614274576142736136a6565b5b6000614282868287016138f3565b935050602084013567ffffffffffffffff8111156142a3576142a26136ab565b5b6142af86828701614205565b92509250509250925092565b600080602083850312156142d2576142d16136a6565b5b600083013567ffffffffffffffff8111156142f0576142ef6136ab565b5b6142fc85828601614205565b92509250509250929050565b6000806040838503121561431f5761431e6136a6565b5b600061432d858286016138f3565b925050602061433e858286016138f3565b9150509250929050565b7f4e487b7100000000000000000000000000000000000000000000000000000000600052603260045260246000fd5b7f4e487b7100000000000000000000000000000000000000000000000000000000600052602260045260246000fd5b600060028204905060018216806143be57607f821691505b6020821081036143d1576143d0614377565b5b50919050565b7f4552433732313a20617070726f76616c20746f2063757272656e74206f776e6560008201527f7200000000000000000000000000000000000000000000000000000000000000602082015250565b6000614433602183613835565b915061443e826143d7565b604082019050919050565b6000602082019050818103600083015261446281614426565b9050919050565b7f4552433732313a20617070726f76652063616c6c6572206973206e6f7420746f60008201527f6b656e206f776e6572206f7220617070726f76656420666f7220616c6c000000602082015250565b60006144c5603d83613835565b91506144d082614469565b604082019050919050565b600060208201905081810360008301526144f4816144b8565b9050919050565b7f4e487b7100000000000000000000000000000000000000000000000000000000600052601160045260246000fd5b6000614535826136b0565b91507fffffffffffffffffffffffffffffffffffffffffffffffffffffffffffffffff8203614567576145666144fb565b5b600182019050919050565b600061457d826136b0565b9150614588836136b0565b92508282039050818111156145a05761459f6144fb565b5b92915050565b7f4e487b7100000000000000000000000000000000000000000000000000000000600052603160045260246000fd5b60006145e082613a50565b91506145eb83613a50565b925082820190508281121560008312168382126000841215161715614613576146126144fb565b5b92915050565b7f4552433732313a2063616c6c6572206973206e6f7420746f6b656e206f776e6560008201527f72206f7220617070726f76656400000000000000000000000000000000000000602082015250565b6000614675602d83613835565b915061468082614619565b604082019050919050565b600060208201905081810360008301526146a481614668565b9050919050565b7f4552433732313a20696e76616c696420746f6b656e2049440000000000000000600082015250565b60006146e1601883613835565b91506146ec826146ab565b602082019050919050565b60006020820190508181036000830152614710816146d4565b9050919050565b7f4552433732313a2061646472657373207a65726f206973206e6f74206120766160008201527f6c6964206f776e65720000000000000000000000000000000000000000000000602082015250565b6000614773602983613835565b915061477e82614717565b604082019050919050565b600060208201905081810360008301526147a281614766565b9050919050565b6000815490506147b8816143a6565b9050919050565b60008190508160005260206000209050919050565b60008190508160005260206000209050919050565b60006020601f8301049050919050565b600082821b905092915050565b6000600883026148367fffffffffffffffffffffffffffffffffffffffffffffffffffffffffffffffff826147f9565b61484086836147f9565b95508019841693508086168417925050509392505050565b6000819050919050565b600061487d614878614873846136b0565b614858565b6136b0565b9050919050565b6000819050919050565b61489783614862565b6148ab6148a382614884565b848454614806565b825550505050565b600090565b6148c06148b3565b6148cb81848461488e565b505050565b5b818110156148ef576148e46000826148b8565b6001810190506148d1565b5050565b601f82111561493457614905816147bf565b61490e846147e9565b8101602085101561491d578190505b614931614929856147e9565b8301826148d0565b50505b505050565b600082821c905092915050565b600061495760001984600802614939565b1980831691505092915050565b60006149708383614946565b9150826002028217905092915050565b81810361498e575050614a66565b614997826147a9565b67ffffffffffffffff8111156149b0576149af6139a4565b5b6149ba82546143a6565b6149c58282856148f3565b6000601f8311600181146149f457600084156149e2578287015490505b6149ec8582614964565b865550614a5f565b601f198416614a02876147d4565b9650614a0d866147bf565b60005b82811015614a3557848901548255600182019150600185019450602081019050614a10565b86831015614a525784890154614a4e601f891682614946565b8355505b6001600288020188555050505b5050505050505b565b600081905092915050565b6000614a7e8261382a565b614a888185614a68565b9350614a98818560208601613846565b80840191505092915050565b6000614ab08285614a73565b9150614abc8284614a73565b91508190509392505050565b614ad18261382a565b67ffffffffffffffff811115614aea57614ae96139a4565b5b614af482546143a6565b614aff8282856148f3565b600060209050601f831160018114614b325760008415614b20578287015190505b614b2a8582614964565b865550614b92565b601f198416614b40866147bf565b60005b82811015614b6857848901518255600182019150602085019450602081019050614b43565b86831015614b855784890151614b81601f891682614946565b8355505b6001600288020188555050505b505050505050565b600082905092915050565b614baf8383614b9a565b67ffffffffffffffff811115614bc857614bc76139a4565b5b614bd282546143a6565b614bdd8282856148f3565b6000601f831160018114614c0c5760008415614bfa578287013590505b614c048582614964565b865550614c6c565b601f198416614c1a866147bf565b60005b82811015614c4257848901358255600182019150602085019450602081019050614c1d565b86831015614c5f5784890135614c5b601f891682614946565b8355505b6001600288020188555050505b50505050505050565b7f4f776e61626c653a206e6577206f776e657220697320746865207a65726f206160008201527f6464726573730000000000000000000000000000000000000000000000000000602082015250565b6000614cd1602683613835565b9150614cdc82614c75565b604082019050919050565b60006020820190508181036000830152614d0081614cc4565b9050919050565b7f4f776e61626c653a2063616c6c6572206973206e6f7420746865206f776e6572600082015250565b6000614d3d602083613835565b9150614d4882614d07565b602082019050919050565b60006020820190508181036000830152614d6c81614d30565b9050919050565b7f4552433732313a207472616e736665722066726f6d20696e636f72726563742060008201527f6f776e6572000000000000000000000000000000000000000000000000000000602082015250565b6000614dcf602583613835565b9150614dda82614d73565b604082019050919050565b60006020820190508181036000830152614dfe81614dc2565b9050919050565b7f4552433732313a207472616e7366657220746f20746865207a65726f2061646460008201527f7265737300000000000000000000000000000000000000000000000000000000602082015250565b6000614e61602483613835565b9150614e6c82614e05565b604082019050919050565b60006020820190508181036000830152614e9081614e54565b9050919050565b7f4552433732313a20617070726f766520746f2063616c6c657200000000000000600082015250565b6000614ecd601983613835565b9150614ed882614e97565b602082019050919050565b60006020820190508181036000830152614efc81614ec0565b9050919050565b7f4552433732313a207472616e7366657220746f206e6f6e20455243373231526560008201527f63656976657220696d706c656d656e7465720000000000000000000000000000602082015250565b6000614f5f603283613835565b9150614f6a82614f03565b604082019050919050565b60006020820190508181036000830152614f8e81614f52565b9050919050565b7f4552433732313a206d696e7420746f20746865207a65726f2061646472657373600082015250565b6000614fcb602083613835565b9150614fd682614f95565b602082019050919050565b60006020820190508181036000830152614ffa81614fbe565b9050919050565b7f4552433732313a20746f6b656e20616c7265616479206d696e74656400000000600082015250565b6000615037601c83613835565b915061504282615001565b602082019050919050565b600060208201905081810360008301526150668161502a565b9050919050565b7f45524337323155524953746f726167653a2055524920736574206f66206e6f6e60008201527f6578697374656e7420746f6b656e000000000000000000000000000000000000602082015250565b60006150c9602e83613835565b91506150d48261506d565b604082019050919050565b600060208201905081810360008301526150f8816150bc565b9050919050565b600081519050919050565b600082825260208201905092915050565b6000615126826150ff565b615130818561510a565b9350615140818560208601613846565b61514981613870565b840191505092915050565b60006080820190506151696000830187613745565b6151766020830186613745565b6151836040830185613975565b8181036060830152615195818461511b565b905095945050505050565b6000815190506151af8161379b565b92915050565b6000602082840312156151cb576151ca6136a6565b5b60006151d9848285016151a0565b91505092915050565b7f4e487b7100000000000000000000000000000000000000000000000000000000600052601260045260246000fdfea26469706673582212201bc2654aba49264402c80102a21ba4622056b555db04d6c959f2571a4398448e64736f6c63430008130033",
  "immutableReferences": {},
  "source": "// SPDX-License-Identifier: MIT.\r\npragma solidity 0.8.19;\r\n\r\n// The next line import the interface and some useful methods to implement ERC721 contracts.\r\nimport \"@openzeppelin/contracts/token/ERC721/extensions/ERC721URIStorage.sol\";\r\nimport \"./SmartExam.sol\";\r\nimport \"./SmartWrittenExam.sol\";\r\n\r\ncontract SmartMathExam is ERC721URIStorage, SmartExam, SmartWrittenExam{\r\n    // Constructor take two parameters: The name and the symbol of the colection.\r\n    constructor() ERC721(\"smartExam\", \"SME\") {}\r\n\r\n    /*\r\n     The test exams are formed by:\r\n     - The address of the student.\r\n     - The ipfsURI of the NFT metadata.\r\n     - The correction notes (Added by a professor).\r\n     - The score of the exam (Added by a professor).\r\n     - The date when the exam was submited.\r\n     - The date when the exam was assessed.\r\n     */\r\n    struct StudentExam {\r\n        address studentAddress;\r\n        string ipfsURI;\r\n        string[] correctionNotes;\r\n        int score;\r\n        bool checkExam;\r\n        uint256 dateCommit;\r\n        uint256 dateAssess;\r\n    }\r\n\r\n    // Array with all the information of the submissions.\r\n    StudentExam[] studentExams;\r\n\r\n    // Number that count the number of NFT that was minted\r\n    uint private nftCount = 0;\r\n\r\n    // Function that check if a student submited a test.\r\n    function checkStudent(address studentAdd) public view returns (bool) {\r\n        bool studentExists = false;\r\n        for (uint i = 0; i<studentExams.length; i++){\r\n            if(studentAdd == studentExams[i].studentAddress){\r\n                studentExists = true;\r\n                break;\r\n            }\r\n        }\r\n        return studentExists;\r\n    }\r\n\r\n    // Funtion to obtain the info of a student's exam by its address.\r\n    function getStudent(address studentAdd) public view returns (StudentExam memory) {\r\n        uint index = 0;\r\n        for (uint i = 0; i<studentExams.length; i++){\r\n            if(studentAdd == studentExams[i].studentAddress){\r\n                index = i;\r\n                break;\r\n            }\r\n        }\r\n        return studentExams[index];\r\n    }\r\n\r\n    // Funtion to obtain the number of submited exams.\r\n    function getStudentsCount() external view returns (uint) {\r\n        return studentExams.length;\r\n    }\r\n\r\n    // Function to obtain the info of a student's exam by its index on studentExams.\r\n    function getStudentByIndex(uint index) public view returns (StudentExam memory){\r\n        return studentExams[index];\r\n    }\r\n\r\n    // Function to sum the scores in all of the questions.\r\n    function computeScore(int[] memory _scores, string[] memory notes, address studentAdd) external returns (int) {\r\n        int score = 0;\r\n        if(!checkProfessor(msg.sender)){\r\n            return -1;\r\n        } else if (!checkStudent(studentAdd) || !(getStudent(studentAdd).checkExam)){\r\n            return -2;\r\n        }\r\n        \r\n        for(uint i = 0; i < _scores.length; i++){\r\n            score += _scores[i];\r\n        }\r\n\r\n        for(uint i = 0; i < studentExams.length; i++) {\r\n            if(studentAdd == studentExams[i].studentAddress){\r\n                studentExams[i].score = score;\r\n                studentExams[i].correctionNotes = notes;\r\n                studentExams[i].dateAssess = block.timestamp;\r\n            }\r\n        }\r\n\r\n        return score;\r\n    }\r\n\r\n    // Function that let the owner mint the NFT exams and asign them to the student that made the exam.\r\n    function mint(\r\n        address _to, // The wallet address that will get the NFT.\r\n        string calldata _uri // IPFS address of metadata file with all the data for the specific NFT.\r\n    ) external onlyOwner returns (uint){\r\n        if(checkStudent(_to) && !(getStudent(_to).checkExam)){\r\n            // The smartcontract mint an NFT to a specific address with a given token Id.\r\n            _mint(_to, nftCount);\r\n            // Set the token Id. to the metadata URI.\r\n            _setTokenURI(nftCount, _uri);\r\n            nftCount++;\r\n            uint index = 0;\r\n            for (uint i = 0; i<studentExams.length; i++){\r\n                if(_to == studentExams[i].studentAddress){\r\n                    index = i;\r\n                    break;\r\n                }\r\n            }\r\n            studentExams[index].checkExam = true;\r\n            return 0;\r\n        }\r\n        if(checkStudent(_to)){\r\n            return 1;\r\n        }\r\n        return 2;//Did not do the exam        \r\n    }\r\n\r\n    // Function that let students to submit his questions. \r\n    function doExam(string calldata _uri) public returns (uint) {\r\n        if ((!checkStudent(msg.sender)) && examAvailable){\r\n            studentExams.push(StudentExam({\r\n                studentAddress: msg.sender,\r\n                ipfsURI: _uri,\r\n                correctionNotes: new string[](0),\r\n                score: -10,\r\n                checkExam: false,\r\n                dateCommit: block.timestamp,\r\n                dateAssess: block.timestamp\r\n            }));\r\n            return 0;\r\n        }\r\n        if(!(examAvailable)){\r\n            return 1; \r\n        }\r\n        return 2;// The student already did the exam.\r\n    }\r\n\r\n    // Funtion to get the score of a student.\r\n    function checkScore() external view returns (int) {\r\n        if(checkStudent(msg.sender)){\r\n            for (uint i = 0; i < studentExams.length; i++){\r\n                if(msg.sender == studentExams[i].studentAddress){\r\n                    return studentExams[i].score;\r\n                }\r\n            }\r\n        }\r\n        return -1;\r\n    }\r\n\r\n\r\n    // Function that returns the correction notes of a student exams.\r\n    function getCorrectionNotes(address _studentAdd) external view returns (string[] memory){\r\n        if(checkStudent(_studentAdd)){\r\n            for (uint i = 0; i < studentExams.length; i++){\r\n                if (_studentAdd == studentExams[i].studentAddress){\r\n                    return studentExams[i].correctionNotes;\r\n                }\r\n            }   \r\n        }\r\n        string[] memory error = new string[](1);\r\n        error[0] = 'error';\r\n        return error;\r\n    }\r\n}",
  "sourcePath": "C:\\Users\\pedro\\OneDrive\\Escritorio\\blockchain\\smart-exam\\contracts\\SmartMathExam.sol",
  "compiler": {
    "name": "solc",
    "version": "0.8.19+commit.7dd6d404.Emscripten.clang"
  },
  "schemaVersion": "3.4.13",
  "updatedAt": "2023-04-20T15:46:44.893Z",
  "networkType": "ethereum",
  "devdoc": {
    "events": {
      "Approval(address,address,uint256)": {
        "details": "Emitted when `owner` enables `approved` to manage the `tokenId` token."
      },
      "ApprovalForAll(address,address,bool)": {
        "details": "Emitted when `owner` enables or disables (`approved`) `operator` to manage all of its assets."
      },
      "Transfer(address,address,uint256)": {
        "details": "Emitted when `tokenId` token is transferred from `from` to `to`."
      }
    },
    "kind": "dev",
    "methods": {
      "approve(address,uint256)": {
        "details": "See {IERC721-approve}."
      },
      "balanceOf(address)": {
        "details": "See {IERC721-balanceOf}."
      },
      "getApproved(uint256)": {
        "details": "See {IERC721-getApproved}."
      },
      "isApprovedForAll(address,address)": {
        "details": "See {IERC721-isApprovedForAll}."
      },
      "name()": {
        "details": "See {IERC721Metadata-name}."
      },
      "owner()": {
        "details": "Returns the address of the current owner."
      },
      "ownerOf(uint256)": {
        "details": "See {IERC721-ownerOf}."
      },
      "renounceOwnership()": {
        "details": "Leaves the contract without owner. It will not be possible to call `onlyOwner` functions anymore. Can only be called by the current owner. NOTE: Renouncing ownership will leave the contract without an owner, thereby removing any functionality that is only available to the owner."
      },
      "safeTransferFrom(address,address,uint256)": {
        "details": "See {IERC721-safeTransferFrom}."
      },
      "safeTransferFrom(address,address,uint256,bytes)": {
        "details": "See {IERC721-safeTransferFrom}."
      },
      "setApprovalForAll(address,bool)": {
        "details": "See {IERC721-setApprovalForAll}."
      },
      "supportsInterface(bytes4)": {
        "details": "See {IERC165-supportsInterface}."
      },
      "symbol()": {
        "details": "See {IERC721Metadata-symbol}."
      },
      "tokenURI(uint256)": {
        "details": "See {IERC721Metadata-tokenURI}."
      },
      "transferFrom(address,address,uint256)": {
        "details": "See {IERC721-transferFrom}."
      },
      "transferOwnership(address)": {
        "details": "Transfers ownership of the contract to a new account (`newOwner`). Can only be called by the current owner."
      }
    },
    "version": 1
  },
  "userdoc": {
    "kind": "user",
    "methods": {},
    "version": 1
  }
}