{
  "contractName": "SmartDriveTest",
  "abi": [
    {
      "anonymous": false,
      "inputs": [
        {
          "indexed": true,
          "internalType": "address",
          "name": "previousOwner",
          "type": "address"
        },
        {
          "indexed": true,
          "internalType": "address",
          "name": "newOwner",
          "type": "address"
        }
      ],
      "name": "OwnershipTransferred",
      "type": "event"
    },
    {
      "inputs": [
        {
          "internalType": "address",
          "name": "profAdd",
          "type": "address"
        }
      ],
      "name": "addProfessor",
      "outputs": [
        {
          "internalType": "uint256",
          "name": "",
          "type": "uint256"
        }
      ],
      "stateMutability": "nonpayable",
      "type": "function"
    },
    {
      "inputs": [
        {
          "internalType": "address",
          "name": "profAdd",
          "type": "address"
        }
      ],
      "name": "deleteProfessor",
      "outputs": [
        {
          "internalType": "uint256",
          "name": "",
          "type": "uint256"
        }
      ],
      "stateMutability": "nonpayable",
      "type": "function"
    },
    {
      "inputs": [],
      "name": "examDone",
      "outputs": [
        {
          "internalType": "uint256",
          "name": "",
          "type": "uint256"
        }
      ],
      "stateMutability": "nonpayable",
      "type": "function"
    },
    {
      "inputs": [],
      "name": "getExamAvailability",
      "outputs": [
        {
          "internalType": "bool",
          "name": "",
          "type": "bool"
        }
      ],
      "stateMutability": "view",
      "type": "function",
      "constant": true
    },
    {
      "inputs": [],
      "name": "getLastUpdate",
      "outputs": [
        {
          "internalType": "uint256",
          "name": "",
          "type": "uint256"
        }
      ],
      "stateMutability": "view",
      "type": "function",
      "constant": true
    },
    {
      "inputs": [
        {
          "internalType": "uint256",
          "name": "index",
          "type": "uint256"
        }
      ],
      "name": "getProfessorByIndex",
      "outputs": [
        {
          "internalType": "address",
          "name": "",
          "type": "address"
        }
      ],
      "stateMutability": "view",
      "type": "function",
      "constant": true
    },
    {
      "inputs": [],
      "name": "getProfessorsCount",
      "outputs": [
        {
          "internalType": "uint256",
          "name": "",
          "type": "uint256"
        }
      ],
      "stateMutability": "view",
      "type": "function",
      "constant": true
    },
    {
      "inputs": [],
      "name": "owner",
      "outputs": [
        {
          "internalType": "address",
          "name": "",
          "type": "address"
        }
      ],
      "stateMutability": "view",
      "type": "function",
      "constant": true
    },
    {
      "inputs": [],
      "name": "renounceOwnership",
      "outputs": [],
      "stateMutability": "nonpayable",
      "type": "function"
    },
    {
      "inputs": [
        {
          "internalType": "uint256",
          "name": "",
          "type": "uint256"
        }
      ],
      "name": "studentExams",
      "outputs": [
        {
          "internalType": "address",
          "name": "studentAddress",
          "type": "address"
        },
        {
          "internalType": "int256",
          "name": "score",
          "type": "int256"
        },
        {
          "internalType": "uint256",
          "name": "dateCommit",
          "type": "uint256"
        }
      ],
      "stateMutability": "view",
      "type": "function",
      "constant": true
    },
    {
      "inputs": [
        {
          "internalType": "address",
          "name": "newOwner",
          "type": "address"
        }
      ],
      "name": "transferOwnership",
      "outputs": [],
      "stateMutability": "nonpayable",
      "type": "function"
    },
    {
      "inputs": [
        {
          "internalType": "string",
          "name": "_statement",
          "type": "string"
        },
        {
          "internalType": "string",
          "name": "_op1",
          "type": "string"
        },
        {
          "internalType": "string",
          "name": "_op2",
          "type": "string"
        },
        {
          "internalType": "string",
          "name": "_op3",
          "type": "string"
        },
        {
          "internalType": "uint16",
          "name": "_ans",
          "type": "uint16"
        }
      ],
      "name": "addQuestion",
      "outputs": [
        {
          "internalType": "uint256",
          "name": "",
          "type": "uint256"
        }
      ],
      "stateMutability": "nonpayable",
      "type": "function"
    },
    {
      "inputs": [
        {
          "internalType": "uint256",
          "name": "index",
          "type": "uint256"
        }
      ],
      "name": "deleteQuestion",
      "outputs": [
        {
          "internalType": "uint256",
          "name": "",
          "type": "uint256"
        }
      ],
      "stateMutability": "nonpayable",
      "type": "function"
    },
    {
      "inputs": [],
      "name": "getQuestionsCount",
      "outputs": [
        {
          "internalType": "uint256",
          "name": "",
          "type": "uint256"
        }
      ],
      "stateMutability": "view",
      "type": "function",
      "constant": true
    },
    {
      "inputs": [
        {
          "internalType": "uint256",
          "name": "index",
          "type": "uint256"
        }
      ],
      "name": "getQuestionByIndex",
      "outputs": [
        {
          "components": [
            {
              "internalType": "string",
              "name": "statement",
              "type": "string"
            },
            {
              "internalType": "string",
              "name": "op1",
              "type": "string"
            },
            {
              "internalType": "string",
              "name": "op2",
              "type": "string"
            },
            {
              "internalType": "string",
              "name": "op3",
              "type": "string"
            },
            {
              "internalType": "uint16",
              "name": "ans",
              "type": "uint16"
            }
          ],
          "internalType": "struct SmartDriveTest.Question",
          "name": "",
          "type": "tuple"
        }
      ],
      "stateMutability": "view",
      "type": "function",
      "constant": true
    },
    {
      "inputs": [
        {
          "internalType": "uint256[]",
          "name": "_answers",
          "type": "uint256[]"
        }
      ],
      "name": "doExam",
      "outputs": [
        {
          "internalType": "uint256",
          "name": "",
          "type": "uint256"
        }
      ],
      "stateMutability": "nonpayable",
      "type": "function"
    },
    {
      "inputs": [],
      "name": "checkScore",
      "outputs": [
        {
          "internalType": "int256",
          "name": "",
          "type": "int256"
        }
      ],
      "stateMutability": "view",
      "type": "function",
      "constant": true
    }
  ],
  "bytecode": "0x60806040526000600260006101000a81548160ff02191690831515021790555034801561002b57600080fd5b5061004861003d61004d60201b60201c565b61005560201b60201c565b610119565b600033905090565b60008060009054906101000a900473ffffffffffffffffffffffffffffffffffffffff169050816000806101000a81548173ffffffffffffffffffffffffffffffffffffffff021916908373ffffffffffffffffffffffffffffffffffffffff1602179055508173ffffffffffffffffffffffffffffffffffffffff168173ffffffffffffffffffffffffffffffffffffffff167f8be0079c531659141344cd1fd0a4f28419497f9722a3daafe3b4186f6b6457e060405160405180910390a35050565b61245180620001296000396000f3fe608060405234801561001057600080fd5b506004361061010a5760003560e01c8063715018a6116100a25780639a3c4c79116100715780639a3c4c79146102cf578063b106c05d146102ff578063c2e112d21461031d578063c4bb49a21461033b578063f2fde38b1461036d5761010a565b8063715018a61461024757806377e97f37146102515780638da5cb5b146102815780639654e58d1461029f5761010a565b80633a166477116100de5780633a166477146101ab5780634268edaa146101c957806349efe44e146101f95780634c89867f146102295761010a565b8062afb2aa1461010f5780630fa576f21461013f578063179bfd361461016f5780633169af301461018d575b600080fd5b61012960048036038101906101249190611879565b610389565b60405161013691906118e7565b60405180910390f35b6101596004803603810190610154919061192e565b6103d1565b604051610166919061196a565b60405180910390f35b61017761058c565b604051610184919061199e565b60405180910390f35b61019561068e565b6040516101a291906119d4565b60405180910390f35b6101b36106a5565b6040516101c0919061196a565b60405180910390f35b6101e360048036038101906101de919061192e565b6106b2565b6040516101f0919061196a565b60405180910390f35b610213600480360381019061020e9190611a8e565b610740565b604051610220919061196a565b60405180910390f35b610231610977565b60405161023e919061196a565b60405180910390f35b61024f610981565b005b61026b60048036038101906102669190611879565b610995565b6040516102789190611cb4565b60405180910390f35b610289610f0a565b60405161029691906118e7565b60405180910390f35b6102b960048036038101906102b49190611d2c565b610f33565b6040516102c6919061196a565b60405180910390f35b6102e960048036038101906102e49190611879565b6110b3565b6040516102f6919061196a565b60405180910390f35b61030761127d565b604051610314919061196a565b60405180910390f35b6103256112f0565b604051610332919061196a565b60405180910390f35b61035560048036038101906103509190611879565b611337565b60405161036493929190611d79565b60405180910390f35b6103876004803603810190610382919061192e565b611391565b005b60006001828154811061039f5761039e611db0565b5b9060005260206000200160009054906101000a900473ffffffffffffffffffffffffffffffffffffffff169050919050565b60006103db611414565b6103e482611492565b15610582576000805b600180549050811015610486576001818154811061040e5761040d611db0565b5b9060005260206000200160009054906101000a900473ffffffffffffffffffffffffffffffffffffffff1673ffffffffffffffffffffffffffffffffffffffff168473ffffffffffffffffffffffffffffffffffffffff160361047357809150610486565b808061047e90611e0e565b9150506103ed565b5060018080805490506104999190611e56565b815481106104aa576104a9611db0565b5b9060005260206000200160009054906101000a900473ffffffffffffffffffffffffffffffffffffffff16600182815481106104e9576104e8611db0565b5b9060005260206000200160006101000a81548173ffffffffffffffffffffffffffffffffffffffff021916908373ffffffffffffffffffffffffffffffffffffffff160217905550600180548061054357610542611e8a565b5b6001900381819060005260206000200160006101000a81549073ffffffffffffffffffffffffffffffffffffffff021916905590556000915050610587565b600190505b919050565b600061059733611540565b156106675760005b60058054905081101561066557600581815481106105c0576105bf611db0565b5b906000526020600020906004020160000160009054906101000a900473ffffffffffffffffffffffffffffffffffffffff1673ffffffffffffffffffffffffffffffffffffffff163373ffffffffffffffffffffffffffffffffffffffff1603610652576005818154811061063857610637611db0565b5b90600052602060002090600402016002015491505061068b565b808061065d90611e0e565b91505061059f565b505b7fffffffffffffffffffffffffffffffffffffffffffffffffffffffffffffffff90505b90565b6000600260009054906101000a900460ff16905090565b6000600180549050905090565b60006106bc611414565b6106c582611492565b156106d3576001905061073b565b6001829080600181540180825580915050600190039060005260206000200160009091909190916101000a81548173ffffffffffffffffffffffffffffffffffffffff021916908373ffffffffffffffffffffffffffffffffffffffff160217905550600090505b919050565b6000600260009054906101000a900460ff1661095c5761075f33611492565b156109575760046040518060a001604052808c8c8080601f016020809104026020016040519081016040528093929190818152602001838380828437600081840152601f19601f8201169050808301925050505050505081526020018a8a8080601f016020809104026020016040519081016040528093929190818152602001838380828437600081840152601f19601f82011690508083019250505050505050815260200188888080601f016020809104026020016040519081016040528093929190818152602001838380828437600081840152601f19601f82011690508083019250505050505050815260200186868080601f016020809104026020016040519081016040528093929190818152602001838380828437600081840152601f19601f8201169050808301925050505050505081526020018461ffff16815250908060018154018082558091505060019003906000526020600020906005020160009091909190915060008201518160000190816108df91906120f4565b5060208201518160010190816108f591906120f4565b50604082015181600201908161090b91906120f4565b50606082015181600301908161092191906120f4565b5060808201518160040160006101000a81548161ffff021916908361ffff1602179055505050426003819055506000905061096a565b610965565b6002905061096a565b600190505b9998505050505050505050565b6000600354905090565b610989611414565b61099360006115f5565b565b61099d61175c565b6109a633611492565b15610c4757600482815481106109bf576109be611db0565b5b90600052602060002090600502016040518060a00160405290816000820180546109e890611f17565b80601f0160208091040260200160405190810160405280929190818152602001828054610a1490611f17565b8015610a615780601f10610a3657610100808354040283529160200191610a61565b820191906000526020600020905b815481529060010190602001808311610a4457829003601f168201915b50505050508152602001600182018054610a7a90611f17565b80601f0160208091040260200160405190810160405280929190818152602001828054610aa690611f17565b8015610af35780601f10610ac857610100808354040283529160200191610af3565b820191906000526020600020905b815481529060010190602001808311610ad657829003601f168201915b50505050508152602001600282018054610b0c90611f17565b80601f0160208091040260200160405190810160405280929190818152602001828054610b3890611f17565b8015610b855780601f10610b5a57610100808354040283529160200191610b85565b820191906000526020600020905b815481529060010190602001808311610b6857829003601f168201915b50505050508152602001600382018054610b9e90611f17565b80601f0160208091040260200160405190810160405280929190818152602001828054610bca90611f17565b8015610c175780601f10610bec57610100808354040283529160200191610c17565b820191906000526020600020905b815481529060010190602001808311610bfa57829003601f168201915b505050505081526020016004820160009054906101000a900461ffff1661ffff1661ffff16815250509050610f05565b600260009054906101000a900460ff1615610ef85760048281548110610c7057610c6f611db0565b5b90600052602060002090600502016040518060a0016040529081600082018054610c9990611f17565b80601f0160208091040260200160405190810160405280929190818152602001828054610cc590611f17565b8015610d125780601f10610ce757610100808354040283529160200191610d12565b820191906000526020600020905b815481529060010190602001808311610cf557829003601f168201915b50505050508152602001600182018054610d2b90611f17565b80601f0160208091040260200160405190810160405280929190818152602001828054610d5790611f17565b8015610da45780601f10610d7957610100808354040283529160200191610da4565b820191906000526020600020905b815481529060010190602001808311610d8757829003601f168201915b50505050508152602001600282018054610dbd90611f17565b80601f0160208091040260200160405190810160405280929190818152602001828054610de990611f17565b8015610e365780601f10610e0b57610100808354040283529160200191610e36565b820191906000526020600020905b815481529060010190602001808311610e1957829003601f168201915b50505050508152602001600382018054610e4f90611f17565b80601f0160208091040260200160405190810160405280929190818152602001828054610e7b90611f17565b8015610ec85780601f10610e9d57610100808354040283529160200191610ec8565b820191906000526020600020905b815481529060010190602001808311610eab57829003601f168201915b505050505081526020016004820160009054906101000a900461ffff1661ffff1661ffff16815250509050610f05565b610f0061175c565b809150505b919050565b60008060009054906101000a900473ffffffffffffffffffffffffffffffffffffffff16905090565b6000610f3e33611540565b158015610f575750600260009054906101000a900460ff165b1561108b57600560405180608001604052803373ffffffffffffffffffffffffffffffffffffffff168152602001858580806020026020016040519081016040528093929190818152602001838360200280828437600081840152601f19601f820116905080830192505050505050508152602001610fd686866116b9565b815260200142815250908060018154018082558091505060019003906000526020600020906004020160009091909190915060008201518160000160006101000a81548173ffffffffffffffffffffffffffffffffffffffff021916908373ffffffffffffffffffffffffffffffffffffffff160217905550602082015181600101908051906020019061106b92919061178f565b5060408201518160020155606082015181600301555050600090506110ad565b600260009054906101000a900460ff166110a857600190506110ad565b600290505b92915050565b6000600260009054906101000a900460ff16611273576110d233611492565b80156110e2575060048054905082105b1561125457600460016004805490506110fb9190611e56565b8154811061110c5761110b611db0565b5b90600052602060002090600502016004838154811061112e5761112d611db0565b5b90600052602060002090600502016000820181600001908161115091906121dc565b506001820181600101908161116591906121dc565b506002820181600201908161117a91906121dc565b506003820181600301908161118f91906121dc565b506004820160009054906101000a900461ffff168160040160006101000a81548161ffff021916908361ffff16021790555090505060048054806111d6576111d5611e8a565b5b6001900381819060005260206000209060050201600080820160006111fb91906117dc565b60018201600061120b91906117dc565b60028201600061121b91906117dc565b60038201600061122b91906117dc565b6004820160006101000a81549061ffff0219169055505090554260038190555060009050611278565b61125d33611492565b61126a5760019050611278565b60029050611278565b600390505b919050565b600061128833611492565b80156112a15750600260009054906101000a900460ff16155b156112ca576001600260006101000a81548160ff021916908315150217905550600090506112ed565b600260009054906101000a900460ff16156112e857600190506112ed565b600290505b90565b60006112fb33611492565b1561130d576004805490509050611334565b600260009054906101000a900460ff161561132f576004805490509050611334565b600090505b90565b6005818154811061134757600080fd5b90600052602060002090600402016000915090508060000160009054906101000a900473ffffffffffffffffffffffffffffffffffffffff16908060020154908060030154905083565b611399611414565b600073ffffffffffffffffffffffffffffffffffffffff168173ffffffffffffffffffffffffffffffffffffffff1603611408576040517f08c379a00000000000000000000000000000000000000000000000000000000081526004016113ff90612347565b60405180910390fd5b611411816115f5565b50565b61141c611754565b73ffffffffffffffffffffffffffffffffffffffff1661143a610f0a565b73ffffffffffffffffffffffffffffffffffffffff1614611490576040517f08c379a0000000000000000000000000000000000000000000000000000000008152600401611487906123b3565b60405180910390fd5b565b6000806000905060005b60018054905081101561153657600181815481106114bd576114bc611db0565b5b9060005260206000200160009054906101000a900473ffffffffffffffffffffffffffffffffffffffff1673ffffffffffffffffffffffffffffffffffffffff168473ffffffffffffffffffffffffffffffffffffffff16036115235760019150611536565b808061152e90611e0e565b91505061149c565b5080915050919050565b6000806000905060005b6005805490508110156115eb576005818154811061156b5761156a611db0565b5b906000526020600020906004020160000160009054906101000a900473ffffffffffffffffffffffffffffffffffffffff1673ffffffffffffffffffffffffffffffffffffffff168473ffffffffffffffffffffffffffffffffffffffff16036115d857600191506115eb565b80806115e390611e0e565b91505061154a565b5080915050919050565b60008060009054906101000a900473ffffffffffffffffffffffffffffffffffffffff169050816000806101000a81548173ffffffffffffffffffffffffffffffffffffffff021916908373ffffffffffffffffffffffffffffffffffffffff1602179055508173ffffffffffffffffffffffffffffffffffffffff168173ffffffffffffffffffffffffffffffffffffffff167f8be0079c531659141344cd1fd0a4f28419497f9722a3daafe3b4186f6b6457e060405160405180910390a35050565b6000806000905060005b600480549050811015611749578484828181106116e3576116e2611db0565b5b90506020020135600482815481106116fe576116fd611db0565b5b906000526020600020906005020160040160009054906101000a900461ffff1661ffff1603611736578180611732906123d3565b9250505b808061174190611e0e565b9150506116c3565b508091505092915050565b600033905090565b6040518060a0016040528060608152602001606081526020016060815260200160608152602001600061ffff1681525090565b8280548282559060005260206000209081019282156117cb579160200282015b828111156117ca5782518255916020019190600101906117af565b5b5090506117d8919061181c565b5090565b5080546117e890611f17565b6000825580601f106117fa5750611819565b601f016020900490600052602060002090810190611818919061181c565b5b50565b5b8082111561183557600081600090555060010161181d565b5090565b600080fd5b600080fd5b6000819050919050565b61185681611843565b811461186157600080fd5b50565b6000813590506118738161184d565b92915050565b60006020828403121561188f5761188e611839565b5b600061189d84828501611864565b91505092915050565b600073ffffffffffffffffffffffffffffffffffffffff82169050919050565b60006118d1826118a6565b9050919050565b6118e1816118c6565b82525050565b60006020820190506118fc60008301846118d8565b92915050565b61190b816118c6565b811461191657600080fd5b50565b60008135905061192881611902565b92915050565b60006020828403121561194457611943611839565b5b600061195284828501611919565b91505092915050565b61196481611843565b82525050565b600060208201905061197f600083018461195b565b92915050565b6000819050919050565b61199881611985565b82525050565b60006020820190506119b3600083018461198f565b92915050565b60008115159050919050565b6119ce816119b9565b82525050565b60006020820190506119e960008301846119c5565b92915050565b600080fd5b600080fd5b600080fd5b60008083601f840112611a1457611a136119ef565b5b8235905067ffffffffffffffff811115611a3157611a306119f4565b5b602083019150836001820283011115611a4d57611a4c6119f9565b5b9250929050565b600061ffff82169050919050565b611a6b81611a54565b8114611a7657600080fd5b50565b600081359050611a8881611a62565b92915050565b600080600080600080600080600060a08a8c031215611ab057611aaf611839565b5b60008a013567ffffffffffffffff811115611ace57611acd61183e565b5b611ada8c828d016119fe565b995099505060208a013567ffffffffffffffff811115611afd57611afc61183e565b5b611b098c828d016119fe565b975097505060408a013567ffffffffffffffff811115611b2c57611b2b61183e565b5b611b388c828d016119fe565b955095505060608a013567ffffffffffffffff811115611b5b57611b5a61183e565b5b611b678c828d016119fe565b93509350506080611b7a8c828d01611a79565b9150509295985092959850929598565b600081519050919050565b600082825260208201905092915050565b60005b83811015611bc4578082015181840152602081019050611ba9565b60008484015250505050565b6000601f19601f8301169050919050565b6000611bec82611b8a565b611bf68185611b95565b9350611c06818560208601611ba6565b611c0f81611bd0565b840191505092915050565b611c2381611a54565b82525050565b600060a0830160008301518482036000860152611c468282611be1565b91505060208301518482036020860152611c608282611be1565b91505060408301518482036040860152611c7a8282611be1565b91505060608301518482036060860152611c948282611be1565b9150506080830151611ca96080860182611c1a565b508091505092915050565b60006020820190508181036000830152611cce8184611c29565b905092915050565b60008083601f840112611cec57611ceb6119ef565b5b8235905067ffffffffffffffff811115611d0957611d086119f4565b5b602083019150836020820283011115611d2557611d246119f9565b5b9250929050565b60008060208385031215611d4357611d42611839565b5b600083013567ffffffffffffffff811115611d6157611d6061183e565b5b611d6d85828601611cd6565b92509250509250929050565b6000606082019050611d8e60008301866118d8565b611d9b602083018561198f565b611da8604083018461195b565b949350505050565b7f4e487b7100000000000000000000000000000000000000000000000000000000600052603260045260246000fd5b7f4e487b7100000000000000000000000000000000000000000000000000000000600052601160045260246000fd5b6000611e1982611843565b91507fffffffffffffffffffffffffffffffffffffffffffffffffffffffffffffffff8203611e4b57611e4a611ddf565b5b600182019050919050565b6000611e6182611843565b9150611e6c83611843565b9250828203905081811115611e8457611e83611ddf565b5b92915050565b7f4e487b7100000000000000000000000000000000000000000000000000000000600052603160045260246000fd5b7f4e487b7100000000000000000000000000000000000000000000000000000000600052604160045260246000fd5b7f4e487b7100000000000000000000000000000000000000000000000000000000600052602260045260246000fd5b60006002820490506001821680611f2f57607f821691505b602082108103611f4257611f41611ee8565b5b50919050565b60008190508160005260206000209050919050565b60006020601f8301049050919050565b600082821b905092915050565b600060088302611faa7fffffffffffffffffffffffffffffffffffffffffffffffffffffffffffffffff82611f6d565b611fb48683611f6d565b95508019841693508086168417925050509392505050565b6000819050919050565b6000611ff1611fec611fe784611843565b611fcc565b611843565b9050919050565b6000819050919050565b61200b83611fd6565b61201f61201782611ff8565b848454611f7a565b825550505050565b600090565b612034612027565b61203f818484612002565b505050565b5b818110156120635761205860008261202c565b600181019050612045565b5050565b601f8211156120a85761207981611f48565b61208284611f5d565b81016020851015612091578190505b6120a561209d85611f5d565b830182612044565b50505b505050565b600082821c905092915050565b60006120cb600019846008026120ad565b1980831691505092915050565b60006120e483836120ba565b9150826002028217905092915050565b6120fd82611b8a565b67ffffffffffffffff81111561211657612115611eb9565b5b6121208254611f17565b61212b828285612067565b600060209050601f83116001811461215e576000841561214c578287015190505b61215685826120d8565b8655506121be565b601f19841661216c86611f48565b60005b828110156121945784890151825560018201915060208501945060208101905061216f565b868310156121b157848901516121ad601f8916826120ba565b8355505b6001600288020188555050505b505050505050565b6000815490506121d581611f17565b9050919050565b8181036121ea5750506122c2565b6121f3826121c6565b67ffffffffffffffff81111561220c5761220b611eb9565b5b6122168254611f17565b612221828285612067565b6000601f831160018114612250576000841561223e578287015490505b61224885826120d8565b8655506122bb565b601f19841661225e87611f48565b965061226986611f48565b60005b828110156122915784890154825560018201915060018501945060208101905061226c565b868310156122ae57848901546122aa601f8916826120ba565b8355505b6001600288020188555050505b5050505050505b565b600082825260208201905092915050565b7f4f776e61626c653a206e6577206f776e657220697320746865207a65726f206160008201527f6464726573730000000000000000000000000000000000000000000000000000602082015250565b60006123316026836122c4565b915061233c826122d5565b604082019050919050565b6000602082019050818103600083015261236081612324565b9050919050565b7f4f776e61626c653a2063616c6c6572206973206e6f7420746865206f776e6572600082015250565b600061239d6020836122c4565b91506123a882612367565b602082019050919050565b600060208201905081810360008301526123cc81612390565b9050919050565b60006123de82611985565b91507f7fffffffffffffffffffffffffffffffffffffffffffffffffffffffffffffff82036124105761240f611ddf565b5b60018201905091905056fea2646970667358221220d8a3204846383d32bff359ca18fd23cb3509948a02305cacf2d1cde410be762764736f6c63430008130033",
  "immutableReferences": {},
  "source": "// SPDX-License-Identifier: MIT.\r\npragma solidity 0.8.19;\r\n\r\nimport \"./SmartExam.sol\";\r\n\r\ncontract SmartDriveTest is SmartExam{\r\n\r\n    // The questions in the test exam have one statement, three options and only one correct answer\r\n    struct Question {\r\n        string statement;\r\n        string op1;\r\n        string op2;\r\n        string op3;\r\n        uint16 ans;\r\n    }\r\n\r\n    /*\r\n     The test exams are formed by:\r\n     - The address of the student.\r\n     - The answers of the questions.\r\n     - The score of the exam.\r\n     - The date when the exam was submited.\r\n     */\r\n    struct StudentExam {\r\n        address studentAddress;\r\n        uint[] answers;\r\n        int score;\r\n        uint256 dateCommit;\r\n    }\r\n\r\n    // Array with all the exam's questions.\r\n    Question[] questions;\r\n    // Array with all the information of the submissions.\r\n    StudentExam[] public studentExams;\r\n\r\n    // Function that check if a student submited a test.\r\n    function checkStudent(address studentAdd) internal view returns (bool) {\r\n        bool studentExists = false;\r\n        for (uint i = 0; i<studentExams.length; i++){\r\n            if(studentAdd == studentExams[i].studentAddress){\r\n                studentExists = true;\r\n                break;\r\n            }\r\n        }\r\n        return studentExists;\r\n    }\r\n\r\n    // Funtion to add a question to questions[].\r\n    function addQuestion (string calldata _statement, string calldata _op1, string calldata _op2, string calldata _op3, uint16 _ans) external returns (uint){\r\n        if(!examAvailable){\r\n            if(checkProfessor(msg.sender)){\r\n                questions.push(Question({\r\n                    statement: _statement,\r\n                    op1: _op1,\r\n                    op2: _op2,\r\n                    op3: _op3,\r\n                    ans: _ans\r\n                }));\r\n                lastUpdate = block.timestamp;\r\n                return 0;\r\n            }\r\n        } else {\r\n            return 2;//The exam cannot be modified.\r\n        }\r\n        return 1;\r\n    }\r\n\r\n    // Function to delete a question from questions[].\r\n    function deleteQuestion (uint index) external returns (uint){\r\n        if(!examAvailable){\r\n            if(checkProfessor(msg.sender) && (index < questions.length)){\r\n                questions[index] = questions[questions.length - 1];\r\n                questions.pop();\r\n                lastUpdate = block.timestamp;\r\n                return 0;\r\n            }\r\n            if(!checkProfessor(msg.sender)){\r\n                return 1;// Only professors can change exams.\r\n            }\r\n            return 2;// Question does not exists.\r\n        } else {\r\n            return 3;//The exam cannot be modified.\r\n        }   \r\n    }\r\n\r\n    // Getter of the number of questions.\r\n    function getQuestionsCount() external view returns (uint) {\r\n        if((checkProfessor(msg.sender))){\r\n            return questions.length;\r\n        } else if (examAvailable){\r\n            return questions.length;\r\n        }\r\n        return 0;\r\n    }\r\n\r\n    // Getter of a question by its index on questions[].\r\n    function getQuestionByIndex(uint index) external view returns (Question memory){\r\n        if((checkProfessor(msg.sender))){\r\n            return questions[index];\r\n        } else if (examAvailable){\r\n            return questions[index];\r\n        }\r\n        Question memory error;\r\n        return error;\r\n    }\r\n\r\n    // Function to sum the scores in all of the questions.\r\n    function computeScore(uint[] calldata _answers) internal view returns (int) {\r\n        int score = 0;\r\n        for (uint i = 0; i < questions.length; i++) {\r\n            if (questions[i].ans == _answers[i]){\r\n                score++;\r\n            }\r\n        }\r\n        return score;\r\n    }\r\n\r\n    // Function that let students to submit his questions. It automatically compute the score\r\n    function doExam(uint[] calldata _answers) public returns (uint) {\r\n        if ((!checkStudent(msg.sender)) && examAvailable){\r\n            studentExams.push(StudentExam({\r\n                studentAddress: msg.sender,\r\n                answers: _answers,\r\n                score: computeScore(_answers),\r\n                dateCommit: block.timestamp\r\n            }));\r\n            return 0;\r\n        }\r\n        if(!(examAvailable)){\r\n            return 1;\r\n        }\r\n        return 2;\r\n    }\r\n\r\n    // Funtion to get the score of a student.\r\n    function checkScore() external view returns (int) {\r\n        if(checkStudent(msg.sender)){\r\n            for (uint i = 0; i < studentExams.length; i++){\r\n                if(msg.sender == studentExams[i].studentAddress){\r\n                    return studentExams[i].score;\r\n                }\r\n            }\r\n        }\r\n        return -1;// Student does not submit the test.\r\n    }\r\n\r\n}\r\n",
  "sourcePath": "C:\\Users\\pedro\\OneDrive\\Escritorio\\blockchain\\smart-exam\\contracts\\SmartDriveTest.sol",
  "compiler": {
    "name": "solc",
    "version": "0.8.19+commit.7dd6d404.Emscripten.clang"
  },
  "schemaVersion": "3.4.13",
  "updatedAt": "2023-04-20T15:46:43.479Z",
  "networkType": "ethereum",
  "devdoc": {
    "kind": "dev",
    "methods": {
      "owner()": {
        "details": "Returns the address of the current owner."
      },
      "renounceOwnership()": {
        "details": "Leaves the contract without owner. It will not be possible to call `onlyOwner` functions anymore. Can only be called by the current owner. NOTE: Renouncing ownership will leave the contract without an owner, thereby removing any functionality that is only available to the owner."
      },
      "transferOwnership(address)": {
        "details": "Transfers ownership of the contract to a new account (`newOwner`). Can only be called by the current owner."
      }
    },
    "version": 1
  },
  "userdoc": {
    "kind": "user",
    "methods": {},
    "version": 1
  }
}