{
  "contractName": "SmartHistoryExam",
  "abi": [
    {
      "anonymous": false,
      "inputs": [
        {
          "indexed": true,
          "internalType": "address",
          "name": "previousOwner",
          "type": "address"
        },
        {
          "indexed": true,
          "internalType": "address",
          "name": "newOwner",
          "type": "address"
        }
      ],
      "name": "OwnershipTransferred",
      "type": "event"
    },
    {
      "inputs": [
        {
          "internalType": "address",
          "name": "profAdd",
          "type": "address"
        }
      ],
      "name": "addProfessor",
      "outputs": [
        {
          "internalType": "uint256",
          "name": "",
          "type": "uint256"
        }
      ],
      "stateMutability": "nonpayable",
      "type": "function"
    },
    {
      "inputs": [
        {
          "internalType": "string",
          "name": "_statement",
          "type": "string"
        }
      ],
      "name": "addQuestion",
      "outputs": [
        {
          "internalType": "uint256",
          "name": "",
          "type": "uint256"
        }
      ],
      "stateMutability": "nonpayable",
      "type": "function"
    },
    {
      "inputs": [
        {
          "internalType": "address",
          "name": "profAdd",
          "type": "address"
        }
      ],
      "name": "deleteProfessor",
      "outputs": [
        {
          "internalType": "uint256",
          "name": "",
          "type": "uint256"
        }
      ],
      "stateMutability": "nonpayable",
      "type": "function"
    },
    {
      "inputs": [
        {
          "internalType": "uint256",
          "name": "index",
          "type": "uint256"
        }
      ],
      "name": "deleteQuestion",
      "outputs": [
        {
          "internalType": "uint256",
          "name": "",
          "type": "uint256"
        }
      ],
      "stateMutability": "nonpayable",
      "type": "function"
    },
    {
      "inputs": [],
      "name": "examDone",
      "outputs": [
        {
          "internalType": "uint256",
          "name": "",
          "type": "uint256"
        }
      ],
      "stateMutability": "nonpayable",
      "type": "function"
    },
    {
      "inputs": [],
      "name": "getExamAvailability",
      "outputs": [
        {
          "internalType": "bool",
          "name": "",
          "type": "bool"
        }
      ],
      "stateMutability": "view",
      "type": "function",
      "constant": true
    },
    {
      "inputs": [],
      "name": "getLastUpdate",
      "outputs": [
        {
          "internalType": "uint256",
          "name": "",
          "type": "uint256"
        }
      ],
      "stateMutability": "view",
      "type": "function",
      "constant": true
    },
    {
      "inputs": [],
      "name": "getMaxScore",
      "outputs": [
        {
          "internalType": "uint256",
          "name": "",
          "type": "uint256"
        }
      ],
      "stateMutability": "pure",
      "type": "function",
      "constant": true
    },
    {
      "inputs": [
        {
          "internalType": "uint256",
          "name": "index",
          "type": "uint256"
        }
      ],
      "name": "getProfessorByIndex",
      "outputs": [
        {
          "internalType": "address",
          "name": "",
          "type": "address"
        }
      ],
      "stateMutability": "view",
      "type": "function",
      "constant": true
    },
    {
      "inputs": [],
      "name": "getProfessorsCount",
      "outputs": [
        {
          "internalType": "uint256",
          "name": "",
          "type": "uint256"
        }
      ],
      "stateMutability": "view",
      "type": "function",
      "constant": true
    },
    {
      "inputs": [
        {
          "internalType": "uint256",
          "name": "index",
          "type": "uint256"
        }
      ],
      "name": "getQuestionByIndex",
      "outputs": [
        {
          "internalType": "string",
          "name": "",
          "type": "string"
        }
      ],
      "stateMutability": "view",
      "type": "function",
      "constant": true
    },
    {
      "inputs": [],
      "name": "getQuestionsCount",
      "outputs": [
        {
          "internalType": "uint256",
          "name": "",
          "type": "uint256"
        }
      ],
      "stateMutability": "view",
      "type": "function",
      "constant": true
    },
    {
      "inputs": [],
      "name": "owner",
      "outputs": [
        {
          "internalType": "address",
          "name": "",
          "type": "address"
        }
      ],
      "stateMutability": "view",
      "type": "function",
      "constant": true
    },
    {
      "inputs": [],
      "name": "renounceOwnership",
      "outputs": [],
      "stateMutability": "nonpayable",
      "type": "function"
    },
    {
      "inputs": [
        {
          "internalType": "address",
          "name": "newOwner",
          "type": "address"
        }
      ],
      "name": "transferOwnership",
      "outputs": [],
      "stateMutability": "nonpayable",
      "type": "function"
    },
    {
      "inputs": [
        {
          "internalType": "address",
          "name": "studentAdd",
          "type": "address"
        }
      ],
      "name": "getStudent",
      "outputs": [
        {
          "components": [
            {
              "internalType": "address",
              "name": "studentAddress",
              "type": "address"
            },
            {
              "internalType": "string[]",
              "name": "answers",
              "type": "string[]"
            },
            {
              "internalType": "string[]",
              "name": "correctionNotes",
              "type": "string[]"
            },
            {
              "internalType": "int256",
              "name": "score",
              "type": "int256"
            },
            {
              "internalType": "uint256",
              "name": "dateCommit",
              "type": "uint256"
            },
            {
              "internalType": "uint256",
              "name": "dateAssess",
              "type": "uint256"
            }
          ],
          "internalType": "struct SmartHistoryExam.StudentExam",
          "name": "",
          "type": "tuple"
        }
      ],
      "stateMutability": "view",
      "type": "function",
      "constant": true
    },
    {
      "inputs": [],
      "name": "getStudentsCount",
      "outputs": [
        {
          "internalType": "uint256",
          "name": "",
          "type": "uint256"
        }
      ],
      "stateMutability": "view",
      "type": "function",
      "constant": true
    },
    {
      "inputs": [
        {
          "internalType": "uint256",
          "name": "index",
          "type": "uint256"
        }
      ],
      "name": "getStudentByIndex",
      "outputs": [
        {
          "components": [
            {
              "internalType": "address",
              "name": "studentAddress",
              "type": "address"
            },
            {
              "internalType": "string[]",
              "name": "answers",
              "type": "string[]"
            },
            {
              "internalType": "string[]",
              "name": "correctionNotes",
              "type": "string[]"
            },
            {
              "internalType": "int256",
              "name": "score",
              "type": "int256"
            },
            {
              "internalType": "uint256",
              "name": "dateCommit",
              "type": "uint256"
            },
            {
              "internalType": "uint256",
              "name": "dateAssess",
              "type": "uint256"
            }
          ],
          "internalType": "struct SmartHistoryExam.StudentExam",
          "name": "",
          "type": "tuple"
        }
      ],
      "stateMutability": "view",
      "type": "function",
      "constant": true
    },
    {
      "inputs": [
        {
          "internalType": "int256[]",
          "name": "_scores",
          "type": "int256[]"
        },
        {
          "internalType": "string[]",
          "name": "notes",
          "type": "string[]"
        },
        {
          "internalType": "address",
          "name": "studentAdd",
          "type": "address"
        }
      ],
      "name": "computeScore",
      "outputs": [
        {
          "internalType": "int256",
          "name": "",
          "type": "int256"
        }
      ],
      "stateMutability": "nonpayable",
      "type": "function"
    },
    {
      "inputs": [
        {
          "internalType": "string[]",
          "name": "_answers",
          "type": "string[]"
        }
      ],
      "name": "doExam",
      "outputs": [
        {
          "internalType": "uint256",
          "name": "",
          "type": "uint256"
        }
      ],
      "stateMutability": "nonpayable",
      "type": "function"
    },
    {
      "inputs": [],
      "name": "checkScore",
      "outputs": [
        {
          "internalType": "int256",
          "name": "",
          "type": "int256"
        }
      ],
      "stateMutability": "view",
      "type": "function",
      "constant": true
    },
    {
      "inputs": [
        {
          "internalType": "address",
          "name": "_studentAdd",
          "type": "address"
        }
      ],
      "name": "getAnswers",
      "outputs": [
        {
          "internalType": "string[]",
          "name": "",
          "type": "string[]"
        }
      ],
      "stateMutability": "view",
      "type": "function",
      "constant": true
    },
    {
      "inputs": [
        {
          "internalType": "address",
          "name": "_studentAdd",
          "type": "address"
        }
      ],
      "name": "getCorrectionNotes",
      "outputs": [
        {
          "internalType": "string[]",
          "name": "",
          "type": "string[]"
        }
      ],
      "stateMutability": "view",
      "type": "function",
      "constant": true
    }
  ],
  "bytecode": "0x60806040526000600260006101000a81548160ff0219169083151502179055503480156200002c57600080fd5b506200004d620000416200005360201b60201c565b6200005b60201b60201c565b6200011f565b600033905090565b60008060009054906101000a900473ffffffffffffffffffffffffffffffffffffffff169050816000806101000a81548173ffffffffffffffffffffffffffffffffffffffff021916908373ffffffffffffffffffffffffffffffffffffffff1602179055508173ffffffffffffffffffffffffffffffffffffffff168173ffffffffffffffffffffffffffffffffffffffff167f8be0079c531659141344cd1fd0a4f28419497f9722a3daafe3b4186f6b6457e060405160405180910390a35050565b613014806200012f6000396000f3fe608060405234801561001057600080fd5b506004361061014c5760003560e01c806377e97f37116100c3578063b106c05d1161007c578063b106c05d146103ef578063c2e112d21461040d578063dc248b991461042b578063dc78302b14610449578063f129dbd914610479578063f2fde38b146104a95761014c565b806377e97f37146102f35780638da5cb5b146103235780639828cd1514610341578063983130961461035f5780639a3c4c791461038f578063a43e077d146103bf5761014c565b80633a166477116101155780633a1664771461021d5780634268edaa1461023b5780634c89867f1461026b578063690ad9e2146102895780636b7b44d7146102b9578063715018a6146102e95761014c565b8062afb2aa146101515780630fa576f21461018157806311ecb0e1146101b1578063179bfd36146101e15780633169af30146101ff575b600080fd5b61016b60048036038101906101669190611f17565b6104c5565b6040516101789190611f85565b60405180910390f35b61019b60048036038101906101969190611fcc565b61050d565b6040516101a89190612008565b60405180910390f35b6101cb60048036038101906101c69190612348565b6106c8565b6040516101d891906123e2565b60405180910390f35b6101e96108ba565b6040516101f691906123e2565b60405180910390f35b6102076109bc565b6040516102149190612418565b60405180910390f35b6102256109d3565b6040516102329190612008565b60405180910390f35b61025560048036038101906102509190611fcc565b6109e0565b6040516102629190612008565b60405180910390f35b610273610a6e565b6040516102809190612008565b60405180910390f35b6102a3600480360381019061029e9190611fcc565b610a78565b6040516102b09190612574565b60405180910390f35b6102d360048036038101906102ce9190611fcc565b610cd4565b6040516102e091906126d9565b60405180910390f35b6102f1610fdc565b005b61030d60048036038101906103089190611f17565b610ff0565b60405161031a9190612745565b60405180910390f35b61032b61117d565b6040516103389190611f85565b60405180910390f35b6103496111a6565b6040516103569190612008565b60405180910390f35b61037960048036038101906103749190611fcc565b6111b3565b6040516103869190612574565b60405180910390f35b6103a960048036038101906103a49190611f17565b61140f565b6040516103b69190612008565b60405180910390f35b6103d960048036038101906103d491906127c2565b611506565b6040516103e69190612008565b60405180910390f35b6103f76116e9565b6040516104049190612008565b60405180910390f35b61041561175c565b6040516104229190612008565b60405180910390f35b6104336117a3565b6040516104409190612008565b60405180910390f35b610463600480360381019061045e9190611f17565b6117ac565b60405161047091906126d9565b60405180910390f35b610493600480360381019061048e9190612865565b611a0e565b6040516104a09190612008565b60405180910390f35b6104c360048036038101906104be9190611fcc565b611a77565b005b6000600182815481106104db576104da6128b2565b5b9060005260206000200160009054906101000a900473ffffffffffffffffffffffffffffffffffffffff169050919050565b6000610517611afa565b61052082611b78565b156106be576000805b6001805490508110156105c2576001818154811061054a576105496128b2565b5b9060005260206000200160009054906101000a900473ffffffffffffffffffffffffffffffffffffffff1673ffffffffffffffffffffffffffffffffffffffff168473ffffffffffffffffffffffffffffffffffffffff16036105af578091506105c2565b80806105ba90612910565b915050610529565b5060018080805490506105d59190612958565b815481106105e6576105e56128b2565b5b9060005260206000200160009054906101000a900473ffffffffffffffffffffffffffffffffffffffff1660018281548110610625576106246128b2565b5b9060005260206000200160006101000a81548173ffffffffffffffffffffffffffffffffffffffff021916908373ffffffffffffffffffffffffffffffffffffffff160217905550600180548061067f5761067e61298c565b5b6001900381819060005260206000200160006101000a81549073ffffffffffffffffffffffffffffffffffffffff0219169055905560009150506106c3565b600190505b919050565b600080600090506106d833611b78565b610705577fffffffffffffffffffffffffffffffffffffffffffffffffffffffffffffffff9150506108b3565b61070e83611c26565b61073b577ffffffffffffffffffffffffffffffffffffffffffffffffffffffffffffffffe9150506108b3565b60005b85518110156107825785818151811061075a576107596128b2565b5b60200260200101518261076d91906129bb565b9150808061077a90612910565b91505061073e565b5060005b6005805490508110156108ad57600581815481106107a7576107a66128b2565b5b906000526020600020906006020160000160009054906101000a900473ffffffffffffffffffffffffffffffffffffffff1673ffffffffffffffffffffffffffffffffffffffff168473ffffffffffffffffffffffffffffffffffffffff160361089a5781600582815481106108205761081f6128b2565b5b906000526020600020906006020160030181905550846005828154811061084a576108496128b2565b5b9060005260206000209060060201600201908051906020019061086e929190611da7565b504260058281548110610884576108836128b2565b5b9060005260206000209060060201600501819055505b80806108a590612910565b915050610786565b50809150505b9392505050565b60006108c533611c26565b156109955760005b60058054905081101561099357600581815481106108ee576108ed6128b2565b5b906000526020600020906006020160000160009054906101000a900473ffffffffffffffffffffffffffffffffffffffff1673ffffffffffffffffffffffffffffffffffffffff163373ffffffffffffffffffffffffffffffffffffffff16036109805760058181548110610966576109656128b2565b5b9060005260206000209060060201600301549150506109b9565b808061098b90612910565b9150506108cd565b505b7fffffffffffffffffffffffffffffffffffffffffffffffffffffffffffffffff90505b90565b6000600260009054906101000a900460ff16905090565b6000600180549050905090565b60006109ea611afa565b6109f382611b78565b15610a015760019050610a69565b6001829080600181540180825580915050600190039060005260206000200160009091909190916101000a81548173ffffffffffffffffffffffffffffffffffffffff021916908373ffffffffffffffffffffffffffffffffffffffff160217905550600090505b919050565b6000600354905090565b6060610a8382611c26565b15610c225760005b600580549050811015610c205760058181548110610aac57610aab6128b2565b5b906000526020600020906006020160000160009054906101000a900473ffffffffffffffffffffffffffffffffffffffff1673ffffffffffffffffffffffffffffffffffffffff168373ffffffffffffffffffffffffffffffffffffffff1603610c0d5760058181548110610b2457610b236128b2565b5b9060005260206000209060060201600201805480602002602001604051908101604052809291908181526020016000905b82821015610c01578382906000526020600020018054610b7490612a2e565b80601f0160208091040260200160405190810160405280929190818152602001828054610ba090612a2e565b8015610bed5780601f10610bc257610100808354040283529160200191610bed565b820191906000526020600020905b815481529060010190602001808311610bd057829003601f168201915b505050505081526020019060010190610b55565b50505050915050610ccf565b8080610c1890612910565b915050610a8b565b505b6000600167ffffffffffffffff811115610c3f57610c3e612039565b5b604051908082528060200260200182016040528015610c7257816020015b6060815260200190600190039081610c5d5790505b5090506040518060400160405280600581526020017f6572726f7200000000000000000000000000000000000000000000000000000081525081600081518110610cbf57610cbe6128b2565b5b6020026020010181905250809150505b919050565b610cdc611e00565b6000805b600580549050811015610d805760058181548110610d0157610d006128b2565b5b906000526020600020906006020160000160009054906101000a900473ffffffffffffffffffffffffffffffffffffffff1673ffffffffffffffffffffffffffffffffffffffff168473ffffffffffffffffffffffffffffffffffffffff1603610d6d57809150610d80565b8080610d7890612910565b915050610ce0565b5060058181548110610d9557610d946128b2565b5b90600052602060002090600602016040518060c00160405290816000820160009054906101000a900473ffffffffffffffffffffffffffffffffffffffff1673ffffffffffffffffffffffffffffffffffffffff1673ffffffffffffffffffffffffffffffffffffffff16815260200160018201805480602002602001604051908101604052809291908181526020016000905b82821015610ed5578382906000526020600020018054610e4890612a2e565b80601f0160208091040260200160405190810160405280929190818152602001828054610e7490612a2e565b8015610ec15780601f10610e9657610100808354040283529160200191610ec1565b820191906000526020600020905b815481529060010190602001808311610ea457829003601f168201915b505050505081526020019060010190610e29565b50505050815260200160028201805480602002602001604051908101604052809291908181526020016000905b82821015610fae578382906000526020600020018054610f2190612a2e565b80601f0160208091040260200160405190810160405280929190818152602001828054610f4d90612a2e565b8015610f9a5780601f10610f6f57610100808354040283529160200191610f9a565b820191906000526020600020905b815481529060010190602001808311610f7d57829003601f168201915b505050505081526020019060010190610f02565b5050505081526020016003820154815260200160048201548152602001600582015481525050915050919050565b610fe4611afa565b610fee6000611cdb565b565b6060610ffb33611b78565b156110ae5760048281548110611014576110136128b2565b5b90600052602060002001805461102990612a2e565b80601f016020809104026020016040519081016040528092919081815260200182805461105590612a2e565b80156110a25780601f10611077576101008083540402835291602001916110a2565b820191906000526020600020905b81548152906001019060200180831161108557829003601f168201915b50505050509050611178565b600260009054906101000a900460ff161561117157600482815481106110d7576110d66128b2565b5b9060005260206000200180546110ec90612a2e565b80601f016020809104026020016040519081016040528092919081815260200182805461111890612a2e565b80156111655780601f1061113a57610100808354040283529160200191611165565b820191906000526020600020905b81548152906001019060200180831161114857829003601f168201915b50505050509050611178565b6060809150505b919050565b60008060009054906101000a900473ffffffffffffffffffffffffffffffffffffffff16905090565b6000600580549050905090565b60606111be82611c26565b1561135d5760005b60058054905081101561135b57600581815481106111e7576111e66128b2565b5b906000526020600020906006020160000160009054906101000a900473ffffffffffffffffffffffffffffffffffffffff1673ffffffffffffffffffffffffffffffffffffffff168373ffffffffffffffffffffffffffffffffffffffff1603611348576005818154811061125f5761125e6128b2565b5b9060005260206000209060060201600101805480602002602001604051908101604052809291908181526020016000905b8282101561133c5783829060005260206000200180546112af90612a2e565b80601f01602080910402602001604051908101604052809291908181526020018280546112db90612a2e565b80156113285780601f106112fd57610100808354040283529160200191611328565b820191906000526020600020905b81548152906001019060200180831161130b57829003601f168201915b505050505081526020019060010190611290565b5050505091505061140a565b808061135390612910565b9150506111c6565b505b6000600167ffffffffffffffff81111561137a57611379612039565b5b6040519080825280602002602001820160405280156113ad57816020015b60608152602001906001900390816113985790505b5090506040518060400160405280600581526020017f6572726f72000000000000000000000000000000000000000000000000000000815250816000815181106113fa576113f96128b2565b5b6020026020010181905250809150505b919050565b6000600260009054906101000a900460ff166114fc5761142e33611b78565b801561143e575060048054905082105b156114dd57600460016004805490506114579190612958565b81548110611468576114676128b2565b5b9060005260206000200160048381548110611486576114856128b2565b5b90600052602060002001908161149c9190612c36565b5060048054806114af576114ae61298c565b5b6001900381819060005260206000200160006114cb9190611e4c565b90554260038190555060009050611501565b6114e633611b78565b6114f35760019050611501565b60029050611501565b600390505b919050565b600061151133611c26565b15801561152a5750600260009054906101000a900460ff165b156116c15760056040518060c001604052803373ffffffffffffffffffffffffffffffffffffffff1681526020018585906115659190612d1e565b8152602001600067ffffffffffffffff81111561158557611584612039565b5b6040519080825280602002602001820160405280156115b857816020015b60608152602001906001900390816115a35790505b5081526020017ffffffffffffffffffffffffffffffffffffffffffffffffffffffffffffffff6815260200142815260200142815250908060018154018082558091505060019003906000526020600020906006020160009091909190915060008201518160000160006101000a81548173ffffffffffffffffffffffffffffffffffffffff021916908373ffffffffffffffffffffffffffffffffffffffff160217905550602082015181600101908051906020019061167a929190611da7565b506040820151816002019080519060200190611697929190611da7565b50606082015181600301556080820151816004015560a082015181600501555050600090506116e3565b600260009054906101000a900460ff166116de57600190506116e3565b600290505b92915050565b60006116f433611b78565b801561170d5750600260009054906101000a900460ff16155b15611736576001600260006101000a81548160ff02191690831515021790555060009050611759565b600260009054906101000a900460ff16156117545760019050611759565b600290505b90565b600061176733611b78565b156117795760048054905090506117a0565b600260009054906101000a900460ff161561179b5760048054905090506117a0565b600090505b90565b60006064905090565b6117b4611e00565b600582815481106117c8576117c76128b2565b5b90600052602060002090600602016040518060c00160405290816000820160009054906101000a900473ffffffffffffffffffffffffffffffffffffffff1673ffffffffffffffffffffffffffffffffffffffff1673ffffffffffffffffffffffffffffffffffffffff16815260200160018201805480602002602001604051908101604052809291908181526020016000905b8282101561190857838290600052602060002001805461187b90612a2e565b80601f01602080910402602001604051908101604052809291908181526020018280546118a790612a2e565b80156118f45780601f106118c9576101008083540402835291602001916118f4565b820191906000526020600020905b8154815290600101906020018083116118d757829003601f168201915b50505050508152602001906001019061185c565b50505050815260200160028201805480602002602001604051908101604052809291908181526020016000905b828210156119e157838290600052602060002001805461195490612a2e565b80601f016020809104026020016040519081016040528092919081815260200182805461198090612a2e565b80156119cd5780601f106119a2576101008083540402835291602001916119cd565b820191906000526020600020905b8154815290600101906020018083116119b057829003601f168201915b505050505081526020019060010190611935565b50505050815260200160038201548152602001600482015481526020016005820154815250509050919050565b6000611a1933611b78565b15611a6c576004838390918060018154018082558091505060019003906000526020600020016000909192909192909192909192509182611a5b929190612d3e565b504260038190555060009050611a71565b600190505b92915050565b611a7f611afa565b600073ffffffffffffffffffffffffffffffffffffffff168173ffffffffffffffffffffffffffffffffffffffff1603611aee576040517f08c379a0000000000000000000000000000000000000000000000000000000008152600401611ae590612e80565b60405180910390fd5b611af781611cdb565b50565b611b02611d9f565b73ffffffffffffffffffffffffffffffffffffffff16611b2061117d565b73ffffffffffffffffffffffffffffffffffffffff1614611b76576040517f08c379a0000000000000000000000000000000000000000000000000000000008152600401611b6d90612eec565b60405180910390fd5b565b6000806000905060005b600180549050811015611c1c5760018181548110611ba357611ba26128b2565b5b9060005260206000200160009054906101000a900473ffffffffffffffffffffffffffffffffffffffff1673ffffffffffffffffffffffffffffffffffffffff168473ffffffffffffffffffffffffffffffffffffffff1603611c095760019150611c1c565b8080611c1490612910565b915050611b82565b5080915050919050565b6000806000905060005b600580549050811015611cd15760058181548110611c5157611c506128b2565b5b906000526020600020906006020160000160009054906101000a900473ffffffffffffffffffffffffffffffffffffffff1673ffffffffffffffffffffffffffffffffffffffff168473ffffffffffffffffffffffffffffffffffffffff1603611cbe5760019150611cd1565b8080611cc990612910565b915050611c30565b5080915050919050565b60008060009054906101000a900473ffffffffffffffffffffffffffffffffffffffff169050816000806101000a81548173ffffffffffffffffffffffffffffffffffffffff021916908373ffffffffffffffffffffffffffffffffffffffff1602179055508173ffffffffffffffffffffffffffffffffffffffff168173ffffffffffffffffffffffffffffffffffffffff167f8be0079c531659141344cd1fd0a4f28419497f9722a3daafe3b4186f6b6457e060405160405180910390a35050565b600033905090565b828054828255906000526020600020908101928215611def579160200282015b82811115611dee578251829081611dde9190612f0c565b5091602001919060010190611dc7565b5b509050611dfc9190611e8c565b5090565b6040518060c00160405280600073ffffffffffffffffffffffffffffffffffffffff16815260200160608152602001606081526020016000815260200160008152602001600081525090565b508054611e5890612a2e565b6000825580601f10611e6a5750611e89565b601f016020900490600052602060002090810190611e889190611eb0565b5b50565b5b80821115611eac5760008181611ea39190611e4c565b50600101611e8d565b5090565b5b80821115611ec9576000816000905550600101611eb1565b5090565b6000604051905090565b600080fd5b600080fd5b6000819050919050565b611ef481611ee1565b8114611eff57600080fd5b50565b600081359050611f1181611eeb565b92915050565b600060208284031215611f2d57611f2c611ed7565b5b6000611f3b84828501611f02565b91505092915050565b600073ffffffffffffffffffffffffffffffffffffffff82169050919050565b6000611f6f82611f44565b9050919050565b611f7f81611f64565b82525050565b6000602082019050611f9a6000830184611f76565b92915050565b611fa981611f64565b8114611fb457600080fd5b50565b600081359050611fc681611fa0565b92915050565b600060208284031215611fe257611fe1611ed7565b5b6000611ff084828501611fb7565b91505092915050565b61200281611ee1565b82525050565b600060208201905061201d6000830184611ff9565b92915050565b600080fd5b6000601f19601f8301169050919050565b7f4e487b7100000000000000000000000000000000000000000000000000000000600052604160045260246000fd5b61207182612028565b810181811067ffffffffffffffff821117156120905761208f612039565b5b80604052505050565b60006120a3611ecd565b90506120af8282612068565b919050565b600067ffffffffffffffff8211156120cf576120ce612039565b5b602082029050602081019050919050565b600080fd5b6000819050919050565b6120f8816120e5565b811461210357600080fd5b50565b600081359050612115816120ef565b92915050565b600061212e612129846120b4565b612099565b90508083825260208201905060208402830185811115612151576121506120e0565b5b835b8181101561217a57806121668882612106565b845260208401935050602081019050612153565b5050509392505050565b600082601f83011261219957612198612023565b5b81356121a984826020860161211b565b91505092915050565b600067ffffffffffffffff8211156121cd576121cc612039565b5b602082029050602081019050919050565b600080fd5b600067ffffffffffffffff8211156121fe576121fd612039565b5b61220782612028565b9050602081019050919050565b82818337600083830152505050565b6000612236612231846121e3565b612099565b905082815260208101848484011115612252576122516121de565b5b61225d848285612214565b509392505050565b600082601f83011261227a57612279612023565b5b813561228a848260208601612223565b91505092915050565b60006122a66122a1846121b2565b612099565b905080838252602082019050602084028301858111156122c9576122c86120e0565b5b835b8181101561231057803567ffffffffffffffff8111156122ee576122ed612023565b5b8086016122fb8982612265565b855260208501945050506020810190506122cb565b5050509392505050565b600082601f83011261232f5761232e612023565b5b813561233f848260208601612293565b91505092915050565b60008060006060848603121561236157612360611ed7565b5b600084013567ffffffffffffffff81111561237f5761237e611edc565b5b61238b86828701612184565b935050602084013567ffffffffffffffff8111156123ac576123ab611edc565b5b6123b88682870161231a565b92505060406123c986828701611fb7565b9150509250925092565b6123dc816120e5565b82525050565b60006020820190506123f760008301846123d3565b92915050565b60008115159050919050565b612412816123fd565b82525050565b600060208201905061242d6000830184612409565b92915050565b600081519050919050565b600082825260208201905092915050565b6000819050602082019050919050565b600081519050919050565b600082825260208201905092915050565b60005b8381101561249957808201518184015260208101905061247e565b60008484015250505050565b60006124b08261245f565b6124ba818561246a565b93506124ca81856020860161247b565b6124d381612028565b840191505092915050565b60006124ea83836124a5565b905092915050565b6000602082019050919050565b600061250a82612433565b612514818561243e565b9350836020820285016125268561244f565b8060005b85811015612562578484038952815161254385826124de565b945061254e836124f2565b925060208a0199505060018101905061252a565b50829750879550505050505092915050565b6000602082019050818103600083015261258e81846124ff565b905092915050565b61259f81611f64565b82525050565b600082825260208201905092915050565b60006125c182612433565b6125cb81856125a5565b9350836020820285016125dd8561244f565b8060005b8581101561261957848403895281516125fa85826124de565b9450612605836124f2565b925060208a019950506001810190506125e1565b50829750879550505050505092915050565b612634816120e5565b82525050565b61264381611ee1565b82525050565b600060c0830160008301516126616000860182612596565b506020830151848203602086015261267982826125b6565b9150506040830151848203604086015261269382826125b6565b91505060608301516126a8606086018261262b565b5060808301516126bb608086018261263a565b5060a08301516126ce60a086018261263a565b508091505092915050565b600060208201905081810360008301526126f38184612649565b905092915050565b600082825260208201905092915050565b60006127178261245f565b61272181856126fb565b935061273181856020860161247b565b61273a81612028565b840191505092915050565b6000602082019050818103600083015261275f818461270c565b905092915050565b600080fd5b60008083601f84011261278257612781612023565b5b8235905067ffffffffffffffff81111561279f5761279e612767565b5b6020830191508360208202830111156127bb576127ba6120e0565b5b9250929050565b600080602083850312156127d9576127d8611ed7565b5b600083013567ffffffffffffffff8111156127f7576127f6611edc565b5b6128038582860161276c565b92509250509250929050565b60008083601f84011261282557612824612023565b5b8235905067ffffffffffffffff81111561284257612841612767565b5b60208301915083600182028301111561285e5761285d6120e0565b5b9250929050565b6000806020838503121561287c5761287b611ed7565b5b600083013567ffffffffffffffff81111561289a57612899611edc565b5b6128a68582860161280f565b92509250509250929050565b7f4e487b7100000000000000000000000000000000000000000000000000000000600052603260045260246000fd5b7f4e487b7100000000000000000000000000000000000000000000000000000000600052601160045260246000fd5b600061291b82611ee1565b91507fffffffffffffffffffffffffffffffffffffffffffffffffffffffffffffffff820361294d5761294c6128e1565b5b600182019050919050565b600061296382611ee1565b915061296e83611ee1565b9250828203905081811115612986576129856128e1565b5b92915050565b7f4e487b7100000000000000000000000000000000000000000000000000000000600052603160045260246000fd5b60006129c6826120e5565b91506129d1836120e5565b9250828201905082811215600083121683821260008412151617156129f9576129f86128e1565b5b92915050565b7f4e487b7100000000000000000000000000000000000000000000000000000000600052602260045260246000fd5b60006002820490506001821680612a4657607f821691505b602082108103612a5957612a586129ff565b5b50919050565b600081549050612a6e81612a2e565b9050919050565b60008190508160005260206000209050919050565b60008190508160005260206000209050919050565b60006020601f8301049050919050565b600082821b905092915050565b600060088302612aec7fffffffffffffffffffffffffffffffffffffffffffffffffffffffffffffffff82612aaf565b612af68683612aaf565b95508019841693508086168417925050509392505050565b6000819050919050565b6000612b33612b2e612b2984611ee1565b612b0e565b611ee1565b9050919050565b6000819050919050565b612b4d83612b18565b612b61612b5982612b3a565b848454612abc565b825550505050565b600090565b612b76612b69565b612b81818484612b44565b505050565b5b81811015612ba557612b9a600082612b6e565b600181019050612b87565b5050565b601f821115612bea57612bbb81612a75565b612bc484612a9f565b81016020851015612bd3578190505b612be7612bdf85612a9f565b830182612b86565b50505b505050565b600082821c905092915050565b6000612c0d60001984600802612bef565b1980831691505092915050565b6000612c268383612bfc565b9150826002028217905092915050565b818103612c44575050612d1c565b612c4d82612a5f565b67ffffffffffffffff811115612c6657612c65612039565b5b612c708254612a2e565b612c7b828285612ba9565b6000601f831160018114612caa5760008415612c98578287015490505b612ca28582612c1a565b865550612d15565b601f198416612cb887612a8a565b9650612cc386612a75565b60005b82811015612ceb57848901548255600182019150600185019450602081019050612cc6565b86831015612d085784890154612d04601f891682612bfc565b8355505b6001600288020188555050505b5050505050505b565b6000612d2b368484612293565b905092915050565b600082905092915050565b612d488383612d33565b67ffffffffffffffff811115612d6157612d60612039565b5b612d6b8254612a2e565b612d76828285612ba9565b6000601f831160018114612da55760008415612d93578287013590505b612d9d8582612c1a565b865550612e05565b601f198416612db386612a75565b60005b82811015612ddb57848901358255600182019150602085019450602081019050612db6565b86831015612df85784890135612df4601f891682612bfc565b8355505b6001600288020188555050505b50505050505050565b7f4f776e61626c653a206e6577206f776e657220697320746865207a65726f206160008201527f6464726573730000000000000000000000000000000000000000000000000000602082015250565b6000612e6a6026836126fb565b9150612e7582612e0e565b604082019050919050565b60006020820190508181036000830152612e9981612e5d565b9050919050565b7f4f776e61626c653a2063616c6c6572206973206e6f7420746865206f776e6572600082015250565b6000612ed66020836126fb565b9150612ee182612ea0565b602082019050919050565b60006020820190508181036000830152612f0581612ec9565b9050919050565b612f158261245f565b67ffffffffffffffff811115612f2e57612f2d612039565b5b612f388254612a2e565b612f43828285612ba9565b600060209050601f831160018114612f765760008415612f64578287015190505b612f6e8582612c1a565b865550612fd6565b601f198416612f8486612a75565b60005b82811015612fac57848901518255600182019150602085019450602081019050612f87565b86831015612fc95784890151612fc5601f891682612bfc565b8355505b6001600288020188555050505b50505050505056fea2646970667358221220e4aef12338f5c74d5a74cb42481d5f45776b2d3158eb85bcee4b8ee52037003364736f6c63430008130033",
  "immutableReferences": {},
  "source": "// SPDX-License-Identifier: MIT.\r\npragma solidity 0.8.19;\r\n\r\nimport \"./SmartExam.sol\";\r\nimport \"./SmartWrittenExam.sol\";\r\n\r\ncontract SmartHistoryExam is SmartExam, SmartWrittenExam{\r\n\r\n    /*\r\n     The test exams are formed by:\r\n     - The address of the student.\r\n     - The answers of the questions.\r\n     - The correction notes (Added by a professor).\r\n     - The score of the exam (Added by a professor).\r\n     - The date when the exam was submited.\r\n     - The date when the exam was assessed.\r\n     */\r\n    struct StudentExam {\r\n        address studentAddress;\r\n        string[] answers;\r\n        string[] correctionNotes;\r\n        int score;\r\n        uint256 dateCommit;\r\n        uint256 dateAssess;\r\n    }\r\n\r\n    // Array with all the information of the submissions.\r\n    StudentExam[] studentExams;\r\n\r\n    // Function that check if a student submited a test.\r\n    function checkStudent(address studentAdd) internal view returns (bool) {\r\n        bool studentExists = false;\r\n        for (uint i = 0; i<studentExams.length; i++){\r\n            if(studentAdd == studentExams[i].studentAddress){\r\n                studentExists = true;\r\n                break;\r\n            }\r\n        }\r\n        return studentExists;\r\n    }\r\n\r\n    // Funtion to obtain the info of a student's exam by its address.\r\n    function getStudent(address studentAdd) public view returns (StudentExam memory) {\r\n        uint index = 0;\r\n        for (uint i = 0; i<studentExams.length; i++){\r\n            if(studentAdd == studentExams[i].studentAddress){\r\n                index = i;\r\n                break;\r\n            }\r\n        }\r\n        return studentExams[index];\r\n    }\r\n\r\n    // Funtion to obtain the number of submited exams.\r\n    function getStudentsCount() external view returns (uint) {\r\n        return studentExams.length;\r\n    }\r\n\r\n    // Function to obtain the info of a student's exam by its index on studentExams.\r\n    function getStudentByIndex(uint index) public view returns (StudentExam memory){\r\n        return studentExams[index];\r\n    }\r\n\r\n    // Function to sum the scores in all of the questions.\r\n    function computeScore(int[] memory _scores, string[] memory notes, address studentAdd) external returns (int) {\r\n        int score = 0;\r\n        if(!checkProfessor(msg.sender)){\r\n            return -1;\r\n        } else if (!checkStudent(studentAdd)){\r\n            return -2;\r\n        }\r\n        \r\n        for(uint i = 0; i < _scores.length; i++){\r\n            score += _scores[i];\r\n        }\r\n\r\n        for(uint i = 0; i < studentExams.length; i++) {\r\n            if(studentAdd == studentExams[i].studentAddress){\r\n                studentExams[i].score = score;\r\n                studentExams[i].correctionNotes = notes;\r\n                studentExams[i].dateAssess = block.timestamp;\r\n            }\r\n        }\r\n\r\n        return score;\r\n    }\r\n\r\n    // Function that let students to submit his questions. \r\n    function doExam(string[] calldata _answers) public returns (uint) {\r\n        if ((!checkStudent(msg.sender)) && examAvailable){\r\n            studentExams.push(StudentExam({\r\n                studentAddress: msg.sender,\r\n                answers: _answers,\r\n                correctionNotes: new string[](0),\r\n                score: -10,\r\n                dateCommit: block.timestamp,\r\n                dateAssess: block.timestamp\r\n            }));\r\n            return 0;\r\n        }\r\n        if(!(examAvailable)){\r\n            return 1; \r\n        }\r\n        return 2;// The student already did the exam.\r\n    }\r\n\r\n    // Funtion to get the score of a student.\r\n    function checkScore() external view returns (int) {\r\n        if(checkStudent(msg.sender)){\r\n            for (uint i = 0; i < studentExams.length; i++){\r\n                if(msg.sender == studentExams[i].studentAddress){\r\n                    return studentExams[i].score;\r\n                }\r\n            }\r\n        }\r\n        return -1;\r\n    }\r\n\r\n    // Function that returns the answers of a student's exam.\r\n    function getAnswers(address _studentAdd) external view returns (string[] memory){\r\n        if(checkStudent(_studentAdd)){\r\n            for (uint i = 0; i < studentExams.length; i++){\r\n                if (_studentAdd == studentExams[i].studentAddress){\r\n                    return studentExams[i].answers;\r\n                }\r\n            }   \r\n        }\r\n        string[] memory error = new string[](1);\r\n        error[0] = 'error';\r\n        return error;\r\n    }\r\n\r\n    // Function that returns the correction notes of a student exams.\r\n    function getCorrectionNotes(address _studentAdd) external view returns (string[] memory){\r\n        if(checkStudent(_studentAdd)){\r\n            for (uint i = 0; i < studentExams.length; i++){\r\n                if (_studentAdd == studentExams[i].studentAddress){\r\n                    return studentExams[i].correctionNotes;\r\n                }\r\n            }   \r\n        }\r\n        string[] memory error = new string[](1);\r\n        error[0] = 'error';\r\n        return error;\r\n    }\r\n\r\n}\r\n",
  "sourcePath": "C:\\Users\\pedro\\OneDrive\\Escritorio\\blockchain\\smart-exam\\contracts\\SmartHistoryExam.sol",
  "compiler": {
    "name": "solc",
    "version": "0.8.19+commit.7dd6d404.Emscripten.clang"
  },
  "schemaVersion": "3.4.13",
  "updatedAt": "2023-04-20T15:46:44.125Z",
  "networkType": "ethereum",
  "devdoc": {
    "kind": "dev",
    "methods": {
      "owner()": {
        "details": "Returns the address of the current owner."
      },
      "renounceOwnership()": {
        "details": "Leaves the contract without owner. It will not be possible to call `onlyOwner` functions anymore. Can only be called by the current owner. NOTE: Renouncing ownership will leave the contract without an owner, thereby removing any functionality that is only available to the owner."
      },
      "transferOwnership(address)": {
        "details": "Transfers ownership of the contract to a new account (`newOwner`). Can only be called by the current owner."
      }
    },
    "version": 1
  },
  "userdoc": {
    "kind": "user",
    "methods": {},
    "version": 1
  }
}